{
  "address": "0x6EC1E40E22Ab8D5B43AeF4890C8B5fDdf6d37b9b",
  "abi": [
    {
      "inputs": [
        {
          "internalType": "address",
          "name": "factoryOwner",
          "type": "address"
        }
      ],
      "stateMutability": "nonpayable",
      "type": "constructor"
    },
    {
      "inputs": [],
      "name": "AssemblyNotFound",
      "type": "error"
    },
    {
      "inputs": [],
      "name": "EmptyMetadataURI",
      "type": "error"
    },
    {
      "inputs": [],
      "name": "FailedDeployment",
      "type": "error"
    },
    {
      "inputs": [
        {
          "internalType": "uint256",
          "name": "balance",
          "type": "uint256"
        },
        {
          "internalType": "uint256",
          "name": "needed",
          "type": "uint256"
        }
      ],
      "name": "InsufficientBalance",
      "type": "error"
    },
    {
      "inputs": [],
      "name": "InvalidImplementation",
      "type": "error"
    },
    {
      "inputs": [
        {
          "internalType": "address",
          "name": "owner",
          "type": "address"
        }
      ],
      "name": "OwnableInvalidOwner",
      "type": "error"
    },
    {
      "inputs": [
        {
          "internalType": "address",
          "name": "account",
          "type": "address"
        }
      ],
      "name": "OwnableUnauthorizedAccount",
      "type": "error"
    },
    {
      "anonymous": false,
      "inputs": [
        {
          "indexed": true,
          "internalType": "address",
          "name": "assemblyAddress",
          "type": "address"
        },
        {
          "indexed": true,
          "internalType": "address",
          "name": "creator",
          "type": "address"
        },
        {
          "indexed": false,
          "internalType": "string",
          "name": "metadataURI",
          "type": "string"
        },
        {
          "indexed": false,
          "internalType": "uint256",
          "name": "assemblyIndex",
          "type": "uint256"
        }
      ],
      "name": "AssemblyCreated",
      "type": "event"
    },
    {
      "anonymous": false,
      "inputs": [
        {
          "indexed": true,
          "internalType": "address",
          "name": "factory",
          "type": "address"
        },
        {
          "indexed": true,
          "internalType": "address",
          "name": "assemblyImplementation",
          "type": "address"
        },
        {
          "indexed": true,
          "internalType": "address",
          "name": "contestImplementation",
          "type": "address"
        }
      ],
      "name": "FactoryDeployed",
      "type": "event"
    },
    {
      "anonymous": false,
      "inputs": [
        {
          "indexed": true,
          "internalType": "address",
          "name": "previousOwner",
          "type": "address"
        },
        {
          "indexed": true,
          "internalType": "address",
          "name": "newOwner",
          "type": "address"
        }
      ],
      "name": "OwnershipTransferred",
      "type": "event"
    },
    {
      "inputs": [
        {
          "internalType": "uint256",
          "name": "",
          "type": "uint256"
        }
      ],
      "name": "assemblies",
      "outputs": [
        {
          "internalType": "address",
          "name": "",
          "type": "address"
        }
      ],
      "stateMutability": "view",
      "type": "function"
    },
    {
      "inputs": [
        {
          "internalType": "address",
          "name": "",
          "type": "address"
        },
        {
          "internalType": "uint256",
          "name": "",
          "type": "uint256"
        }
      ],
      "name": "assembliesByCreator",
      "outputs": [
        {
          "internalType": "address",
          "name": "",
          "type": "address"
        }
      ],
      "stateMutability": "view",
      "type": "function"
    },
    {
      "inputs": [],
      "name": "assemblyImplementation",
      "outputs": [
        {
          "internalType": "address",
          "name": "",
          "type": "address"
        }
      ],
      "stateMutability": "view",
      "type": "function"
    },
    {
      "inputs": [],
      "name": "contestImplementation",
      "outputs": [
        {
          "internalType": "address",
          "name": "",
          "type": "address"
        }
      ],
      "stateMutability": "view",
      "type": "function"
    },
    {
      "inputs": [
        {
          "internalType": "string",
          "name": "metadataURI",
          "type": "string"
        }
      ],
      "name": "createAssembly",
      "outputs": [
        {
          "internalType": "address",
          "name": "assemblyAddress",
          "type": "address"
        }
      ],
      "stateMutability": "nonpayable",
      "type": "function"
    },
    {
      "inputs": [],
      "name": "getAllAssemblies",
      "outputs": [
        {
          "internalType": "address[]",
          "name": "",
          "type": "address[]"
        }
      ],
      "stateMutability": "view",
      "type": "function"
    },
    {
      "inputs": [
        {
          "internalType": "address",
          "name": "creator",
          "type": "address"
        }
      ],
      "name": "getAssembliesByCreator",
      "outputs": [
        {
          "internalType": "address[]",
          "name": "",
          "type": "address[]"
        }
      ],
      "stateMutability": "view",
      "type": "function"
    },
    {
      "inputs": [
        {
          "internalType": "uint256",
          "name": "offset",
          "type": "uint256"
        },
        {
          "internalType": "uint256",
          "name": "limit",
          "type": "uint256"
        }
      ],
      "name": "getAssembliesPaginated",
      "outputs": [
        {
          "internalType": "address[]",
          "name": "paginatedAssemblies",
          "type": "address[]"
        },
        {
          "internalType": "uint256",
          "name": "total",
          "type": "uint256"
        }
      ],
      "stateMutability": "view",
      "type": "function"
    },
    {
      "inputs": [
        {
          "internalType": "uint256",
          "name": "index",
          "type": "uint256"
        }
      ],
      "name": "getAssembly",
      "outputs": [
        {
          "internalType": "address",
          "name": "",
          "type": "address"
        }
      ],
      "stateMutability": "view",
      "type": "function"
    },
    {
      "inputs": [],
      "name": "getAssemblyCount",
      "outputs": [
        {
          "internalType": "uint256",
          "name": "",
          "type": "uint256"
        }
      ],
      "stateMutability": "view",
      "type": "function"
    },
    {
      "inputs": [],
      "name": "getFactoryInfo",
      "outputs": [
        {
          "internalType": "address",
          "name": "factory",
          "type": "address"
        },
        {
          "internalType": "address",
          "name": "assemblyImpl",
          "type": "address"
        },
        {
          "internalType": "address",
          "name": "contestImpl",
          "type": "address"
        },
        {
          "internalType": "uint256",
          "name": "totalAssemblies",
          "type": "uint256"
        }
      ],
      "stateMutability": "view",
      "type": "function"
    },
    {
      "inputs": [
        {
          "internalType": "uint256",
          "name": "count",
          "type": "uint256"
        }
      ],
      "name": "getRecentAssemblies",
      "outputs": [
        {
          "internalType": "address[]",
          "name": "recentAssemblies",
          "type": "address[]"
        }
      ],
      "stateMutability": "view",
      "type": "function"
    },
    {
      "inputs": [
        {
          "internalType": "address",
          "name": "",
          "type": "address"
        }
      ],
      "name": "isAssembly",
      "outputs": [
        {
          "internalType": "bool",
          "name": "",
          "type": "bool"
        }
      ],
      "stateMutability": "view",
      "type": "function"
    },
    {
      "inputs": [],
      "name": "owner",
      "outputs": [
        {
          "internalType": "address",
          "name": "",
          "type": "address"
        }
      ],
      "stateMutability": "view",
      "type": "function"
    },
    {
      "inputs": [],
      "name": "renounceOwnership",
      "outputs": [],
      "stateMutability": "nonpayable",
      "type": "function"
    },
    {
      "inputs": [
        {
          "internalType": "address",
          "name": "newOwner",
          "type": "address"
        }
      ],
      "name": "transferOwnership",
      "outputs": [],
      "stateMutability": "nonpayable",
      "type": "function"
    },
    {
      "inputs": [
        {
          "internalType": "address",
          "name": "potentialAssembly",
          "type": "address"
        }
      ],
      "name": "verifyAssembly",
      "outputs": [
        {
          "internalType": "bool",
          "name": "",
          "type": "bool"
        }
      ],
      "stateMutability": "view",
      "type": "function"
    }
  ],
  "transactionHash": "0xf58ce534bdb8252e35540c239ffdeba98e6ad79a019649ce3d3656a30d68dc86",
  "args": [
    "0x22E4aEc71A150588C506a8de457eDbBb73bede33"
  ],
  "numDeployments": 1,
  "solcInputHash": "9875d4f3fd09f7cbed87daea06762530",
  "bytecode": "0x60c060405234801561000f575f80fd5b5060405161684638038061684683398101604081905261002e91610220565b806001600160a01b03811661005c57604051631e4fbdf760e01b81525f600482015260240160405180910390fd5b610065816101b7565b5060405161007290610206565b604051809103905ff08015801561008b573d5f803e3d5ffd5b506001600160a01b031660a08190526040513091906100a990610213565b6001600160a01b0392831681526060602082018190526015908201527f697066733a2f2f696d706c656d656e746174696f6e000000000000000000000060808201529116604082015260a001604051809103905ff08015801561010e573d5f803e3d5ffd5b506001600160a01b0316608081905261013a5760405163340aafcd60e11b815260040160405180910390fd5b60a0516001600160a01b03166101635760405163340aafcd60e11b815260040160405180910390fd5b60a0516001600160a01b03166080516001600160a01b0316306001600160a01b03167fcb6d2c666b098c711fa0f2ce20b6863cc2b92e5378301100a4b2731b50516d5f60405160405180910390a45061024d565b5f80546001600160a01b038381166001600160a01b0319831681178455604051919092169283917f8be0079c531659141344cd1fd0a4f28419497f9722a3daafe3b4186f6b6457e09190a35050565b6113f380610edb83390190565b614578806122ce83390190565b5f60208284031215610230575f80fd5b81516001600160a01b0381168114610246575f80fd5b9392505050565b60805160a051610c5161028a5f395f81816101a601528181610232015261047201525f8181610210015281816102e601526104210152610c515ff3fe608060405234801561000f575f80fd5b5060043610610106575f3560e01c8063782be8dd1161009e578063adfc36a31161006e578063adfc36a3146102ce578063d99e7c74146102e1578063da9725b414610308578063e0c6d37814610319578063f2fde38b1461032c575f80fd5b8063782be8dd146102065780637f329c89146102895780638da5cb5b1461029c578063a63bb2d4146102ac575f80fd5b806333eee74a116100d957806333eee74a146101a157806347d4e2d3146101c8578063518a66ce146101db578063715018a6146101fc575f80fd5b806304dd15f91461010a5780630b7c96ab146101285780630c331d2f1461016357806314cfa2751461018e575b5f80fd5b61011261033f565b60405161011f91906109f6565b60405180910390f35b610153610136366004610a2a565b6001600160a01b03165f9081526002602052604090205460ff1690565b604051901515815260200161011f565b610176610171366004610a43565b61039f565b6040516001600160a01b03909116815260200161011f565b61017661019c366004610a6b565b6103d3565b6101767f000000000000000000000000000000000000000000000000000000000000000081565b6101766101d6366004610a82565b6103fb565b6101ee6101e9366004610af0565b610594565b60405161011f929190610b10565b61020461069e565b005b61025460015430917f0000000000000000000000000000000000000000000000000000000000000000917f000000000000000000000000000000000000000000000000000000000000000091565b60405161011f94939291906001600160a01b039485168152928416602084015292166040820152606081019190915260800190565b610112610297366004610a2a565b6106b1565b5f546001600160a01b0316610176565b6101536102ba366004610a2a565b60026020525f908152604090205460ff1681565b6101766102dc366004610a6b565b610724565b6101767f000000000000000000000000000000000000000000000000000000000000000081565b60015460405190815260200161011f565b610112610327366004610a6b565b610775565b61020461033a366004610a2a565b610851565b6060600180548060200260200160405190810160405280929190818152602001828054801561039557602002820191905f5260205f20905b81546001600160a01b03168152600190910190602001808311610377575b5050505050905090565b6003602052815f5260405f2081815481106103b8575f80fd5b5f918252602090912001546001600160a01b03169150829050565b600181815481106103e2575f80fd5b5f918252602090912001546001600160a01b0316905081565b5f81810361041c5760405163128e0ec160e11b815260040160405180910390fd5b6104457f0000000000000000000000000000000000000000000000000000000000000000610893565b604051639b6c853960e01b81529091506001600160a01b03821690639b6c85399061049a903390879087907f000000000000000000000000000000000000000000000000000000000000000090600401610b59565b5f604051808303815f87803b1580156104b1575f80fd5b505af11580156104c3573d5f803e3d5ffd5b50506001805480820182557fb10e2d527612073b26eecdfd717e6a320cf44b4afac2b0732d9fcbe2b7fa0cf6810180546001600160a01b0387166001600160a01b031991821681179092555f828152600260209081526040808320805460ff19168817905533808452600383528184208054988901815584529190922090950180549092168317909155519194509192507fe0cb4f1db4cd969df40e33304a5876fe38c61223c78936ca88b704a9ddd745869061058590889088908790610b96565b60405180910390a35092915050565b6001546060908084106105b657604080515f8152602081019091529150610697565b5f6105c18486610be1565b9050818111156105ce5750805b5f6105d98683610bf4565b90508067ffffffffffffffff8111156105f4576105f4610bb9565b60405190808252806020026020018201604052801561061d578160200160208202803683370190505b5093505f5b818110156106935760016106368289610be1565b8154811061064657610646610c07565b905f5260205f20015f9054906101000a90046001600160a01b031685828151811061067357610673610c07565b6001600160a01b0390921660209283029190910190910152600101610622565b5050505b9250929050565b6106a66108a4565b6106af5f6108d0565b565b6001600160a01b0381165f9081526003602090815260409182902080548351818402810184019094528084526060939283018282801561071857602002820191905f5260205f20905b81546001600160a01b031681526001909101906020018083116106fa575b50505050509050919050565b6001545f908210610748576040516317c3209560e01b815260040160405180910390fd5b6001828154811061075b5761075b610c07565b5f918252602090912001546001600160a01b031692915050565b60015460609080831115610787578092505b8267ffffffffffffffff8111156107a0576107a0610bb9565b6040519080825280602002602001820160405280156107c9578160200160208202803683370190505b5091505f5b8381101561084a576001816107e38285610bf4565b6107ed9190610bf4565b815481106107fd576107fd610c07565b905f5260205f20015f9054906101000a90046001600160a01b031683828151811061082a5761082a610c07565b6001600160a01b03909216602092830291909101909101526001016107ce565b5050919050565b6108596108a4565b6001600160a01b03811661088757604051631e4fbdf760e01b81525f60048201526024015b60405180910390fd5b610890816108d0565b50565b5f61089e825f61091f565b92915050565b5f546001600160a01b031633146106af5760405163118cdaa760e01b815233600482015260240161087e565b5f80546001600160a01b038381166001600160a01b0319831681178455604051919092169283917f8be0079c531659141344cd1fd0a4f28419497f9722a3daafe3b4186f6b6457e09190a35050565b5f8147101561094a5760405163cf47918160e01b81524760048201526024810183905260440161087e565b763d602d80600a3d3981f3363d3d373d3d3d363d730000008360601b60e81c175f526e5af43d82803e903d91602b57fd5bf38360781b176020526037600983f090506001600160a01b03811661089e5760405163b06ebf3d60e01b815260040160405180910390fd5b5f8151808452602084019350602083015f5b828110156109ec5781516001600160a01b03168652602095860195909101906001016109c5565b5093949350505050565b602081525f610a0860208301846109b3565b9392505050565b80356001600160a01b0381168114610a25575f80fd5b919050565b5f60208284031215610a3a575f80fd5b610a0882610a0f565b5f8060408385031215610a54575f80fd5b610a5d83610a0f565b946020939093013593505050565b5f60208284031215610a7b575f80fd5b5035919050565b5f8060208385031215610a93575f80fd5b823567ffffffffffffffff811115610aa9575f80fd5b8301601f81018513610ab9575f80fd5b803567ffffffffffffffff811115610acf575f80fd5b856020828401011115610ae0575f80fd5b6020919091019590945092505050565b5f8060408385031215610b01575f80fd5b50508035926020909101359150565b604081525f610b2260408301856109b3565b90508260208301529392505050565b81835281816020850137505f828201602090810191909152601f909101601f19169091010190565b6001600160a01b03851681526060602082018190525f90610b7d9083018587610b31565b905060018060a01b038316604083015295945050505050565b604081525f610ba9604083018587610b31565b9050826020830152949350505050565b634e487b7160e01b5f52604160045260245ffd5b634e487b7160e01b5f52601160045260245ffd5b8082018082111561089e5761089e610bcd565b8181038181111561089e5761089e610bcd565b634e487b7160e01b5f52603260045260245ffdfea264697066735822122091e81484f81c8a95eaeb24d61fbcbdf7d330a7e2c0ed434cc01ed2f1e903513764736f6c634300081a00336080604052348015600e575f80fd5b5060017f9b779b17422d0df92223018b32b4d1fa46e071723d6817e2486d003becc55f00556113b3806100405f395ff3fe608060405234801561000f575f80fd5b506004361061013d575f3560e01c8063502b3a3b116100b4578063adfaa72e11610079578063adfaa72e146102aa578063cc2ee196146102bd578063d4f3ef19146102d2578063e3cfef60146102e7578063e4741da4146102ef578063f5ba1c87146102f9575f80fd5b8063502b3a3b146102565780637c65d7111461026957806385a38635146102715780638e7ea5b21461027a578063a5b767c914610297575f80fd5b8063174ca1ce11610105578063174ca1ce146101b65780631bf71b49146101e157806322f3e2d4146101f8578063390071c314610200578063409e22051461021f5780634717f97c1461023f575f80fd5b80630121b93f1461014157806309eef43e146101565780630d15fd771461018d5780630da183d6146101a4578063158ef93e146101ac575b5f80fd5b61015461014f366004610d52565b610318565b005b610178610164366004610d84565b60076020525f908152604090205460ff1681565b60405190151581526020015b60405180910390f35b61019660095481565b604051908152602001610184565b610196600a81565b5f5460ff16610178565b6001546101c9906001600160a01b031681565b6040516001600160a01b039091168152602001610184565b5f546101c99061010090046001600160a01b031681565b6101786104fa565b61019661020e366004610d52565b60066020525f908152604090205481565b61023261022d366004610d52565b610512565b6040516101849190610dd2565b6102476105b8565b60405161018493929190610e78565b610196610264366004610d52565b61071f565b61023261073e565b61019660045481565b61028261074b565b60408051928352602083019190915201610184565b6101546102a5366004610feb565b6107e1565b6101786102b8366004610d84565b6109ba565b6102c5610a8a565b6040516101849190611119565b6102da610b5e565b604051610184919061112b565b610196610bb4565b6005541515610178565b610196610307366004610d84565b60086020525f908152604090205481565b610320610be0565b600454421061034257604051637a19ed0560e01b815260040160405180910390fd5b5f5460ff16610364576040516321c4e35760e21b815260040160405180910390fd5b335f9081526007602052604090205460ff161561039457604051637c9a1cf960e01b815260040160405180910390fd5b60035481106103b657604051632a71953160e01b815260040160405180910390fd5b6005541561044d57600154604051636d8eb06760e01b81526001600160a01b0390911690636d8eb067906103f190339060059060040161113d565b602060405180830381865afa15801561040c573d5f803e3d5ffd5b505050506040513d601f19601f820116820180604052508101906104309190611189565b61044d5760405163ecb746cd60e01b815260040160405180910390fd5b335f908152600760209081526040808320805460ff191660011790556008825280832084905583835260069091528120805491610489836111bc565b909155505060098054905f61049d836111bc565b9091555050604051819033907fa36cc2bebb74db33e9f88110a07ef56e1b31b24b4c4f51b54b1664266e29f45b905f90a36104f760017f9b779b17422d0df92223018b32b4d1fa46e071723d6817e2486d003becc55f0055565b50565b5f805460ff16801561050d575060045442105b905090565b60038181548110610521575f80fd5b905f5260205f20015f915090508054610539906111d4565b80601f0160208091040260200160405190810160405280929190818152602001828054610565906111d4565b80156105b05780601f10610587576101008083540402835291602001916105b0565b820191905f5260205f20905b81548152906001019060200180831161059357829003601f168201915b505050505081565b6060805f6003805480602002602001604051908101604052809291908181526020015f905b82821015610685578382905f5260205f200180546105fa906111d4565b80601f0160208091040260200160405190810160405280929190818152602001828054610626906111d4565b80156106715780601f1061064857610100808354040283529160200191610671565b820191905f5260205f20905b81548152906001019060200180831161065457829003601f168201915b5050505050815260200190600101906105dd565b5050600354929550505067ffffffffffffffff8111156106a7576106a7610ead565b6040519080825280602002602001820160405280156106d0578160200160208202803683370190505b5091505f5b600354811015610714575f8181526006602052604090205483518490839081106107015761070161120c565b60209081029190910101526001016106d5565b506009549050909192565b6005818154811061072e575f80fd5b5f91825260209091200154905081565b60028054610539906111d4565b5f8060045442101561077057604051633fc30bd160e11b815260040160405180910390fd5b50505f80805260066020527f54cdd369e4e8a8515e52ca72ec816c2101831ad1f18bf44102ed171459c9b4f85460015b6003548110156107dc575f818152600660205260409020548210156107d4575f818152600660205260409020549092509050815b6001016107a0565b509091565b5f5460ff16156108035760405162dc149f60e41b815260040160405180910390fd5b83515f036108245760405163b8a7f21960e01b815260040160405180910390fd5b60028351101561084757604051635135bc7160e01b815260040160405180910390fd5b600a8351111561086a57604051630de5482160e11b815260040160405180910390fd5b815f0361088a576040516305a612e360e01b815260040160405180910390fd5b5f5b83518110156108d7578381815181106108a7576108a761120c565b6020026020010151515f036108cf57604051630f5e795760e01b815260040160405180910390fd5b60010161088c565b505f8054610100600160a81b0319166101006001600160a01b038981169190910291909117909155600180546001600160a01b0319169187169190911790556002610922858261126c565b508251610936906003906020860190610c52565b506109418242611327565b6004558051610957906005906020840190610ca6565b505f805460ff19166001179055600454835182516040516001600160a01b038a16937f793e500fe4ef8918507cea0b0f0977d56fa966cabfa138070b249b8a424f8571936109aa938a939015159061133a565b60405180910390a2505050505050565b5f805460ff166109cb57505f919050565b60045442106109db57505f919050565b6001600160a01b0382165f9081526007602052604090205460ff1615610a0257505f919050565b60055415610a8257600154604051636d8eb06760e01b81526001600160a01b0390911690636d8eb06790610a3d90859060059060040161113d565b602060405180830381865afa158015610a58573d5f803e3d5ffd5b505050506040513d601f19601f82011682018060405250810190610a7c9190611189565b92915050565b506001919050565b60606003805480602002602001604051908101604052809291908181526020015f905b82821015610b55578382905f5260205f20018054610aca906111d4565b80601f0160208091040260200160405190810160405280929190818152602001828054610af6906111d4565b8015610b415780601f10610b1857610100808354040283529160200191610b41565b820191905f5260205f20905b815481529060010190602001808311610b2457829003601f168201915b505050505081526020019060010190610aad565b50505050905090565b60606005805480602002602001604051908101604052809291908181526020018280548015610baa57602002820191905f5260205f20905b815481526020019060010190808311610b96575b5050505050905090565b5f805460ff161580610bc857506004544210155b15610bd257505f90565b4260045461050d919061136a565b610be8610c0e565b60027f9b779b17422d0df92223018b32b4d1fa46e071723d6817e2486d003becc55f0055565b7f9b779b17422d0df92223018b32b4d1fa46e071723d6817e2486d003becc55f0054600203610c5057604051633ee5aeb560e01b815260040160405180910390fd5b565b828054828255905f5260205f20908101928215610c96579160200282015b82811115610c965782518290610c86908261126c565b5091602001919060010190610c70565b50610ca2929150610ceb565b5090565b828054828255905f5260205f20908101928215610cdf579160200282015b82811115610cdf578251825591602001919060010190610cc4565b50610ca2929150610d07565b80821115610ca2575f610cfe8282610d1b565b50600101610ceb565b5b80821115610ca2575f8155600101610d08565b508054610d27906111d4565b5f825580601f10610d36575050565b601f0160209004905f5260205f20908101906104f79190610d07565b5f60208284031215610d62575f80fd5b5035919050565b80356001600160a01b0381168114610d7f575f80fd5b919050565b5f60208284031215610d94575f80fd5b610d9d82610d69565b9392505050565b5f81518084528060208401602086015e5f602082860101526020601f19601f83011685010191505092915050565b602081525f610d9d6020830184610da4565b5f82825180855260208501945060208160051b830101602085015f5b83811015610e3257601f19858403018852610e1c838351610da4565b6020988901989093509190910190600101610e00565b50909695505050505050565b5f8151808452602084019350602083015f5b82811015610e6e578151865260209586019590910190600101610e50565b5093949350505050565b606081525f610e8a6060830186610de4565b8281036020840152610e9c8186610e3e565b915050826040830152949350505050565b634e487b7160e01b5f52604160045260245ffd5b604051601f8201601f1916810167ffffffffffffffff81118282101715610eea57610eea610ead565b604052919050565b5f82601f830112610f01575f80fd5b813567ffffffffffffffff811115610f1b57610f1b610ead565b610f2e601f8201601f1916602001610ec1565b818152846020838601011115610f42575f80fd5b816020850160208301375f918101602001919091529392505050565b5f67ffffffffffffffff821115610f7757610f77610ead565b5060051b60200190565b5f82601f830112610f90575f80fd5b8135610fa3610f9e82610f5e565b610ec1565b8082825260208201915060208360051b860101925085831115610fc4575f80fd5b602085015b83811015610fe1578035835260209283019201610fc9565b5095945050505050565b5f805f805f8060c08789031215611000575f80fd5b61100987610d69565b955061101760208801610d69565b9450604087013567ffffffffffffffff811115611032575f80fd5b61103e89828a01610ef2565b945050606087013567ffffffffffffffff81111561105a575f80fd5b8701601f8101891361106a575f80fd5b8035611078610f9e82610f5e565b8082825260208201915060208360051b85010192508b831115611099575f80fd5b602084015b838110156110da57803567ffffffffffffffff8111156110bc575f80fd5b6110cb8e602083890101610ef2565b8452506020928301920161109e565b5095505050506080870135915060a087013567ffffffffffffffff811115611100575f80fd5b61110c89828a01610f81565b9150509295509295509295565b602081525f610d9d6020830184610de4565b602081525f610d9d6020830184610e3e565b6001600160a01b03831681526040602080830182905283549183018290525f84815290812090916060840190835b81811015610e3257835483526001938401936020909301920161116b565b5f60208284031215611199575f80fd5b81518015158114610d9d575f80fd5b634e487b7160e01b5f52601160045260245ffd5b5f600182016111cd576111cd6111a8565b5060010190565b600181811c908216806111e857607f821691505b60208210810361120657634e487b7160e01b5f52602260045260245ffd5b50919050565b634e487b7160e01b5f52603260045260245ffd5b601f82111561126757805f5260205f20601f840160051c810160208510156112455750805b601f840160051c820191505b81811015611264575f8155600101611251565b50505b505050565b815167ffffffffffffffff81111561128657611286610ead565b61129a8161129484546111d4565b84611220565b6020601f8211600181146112cc575f83156112b55750848201515b5f19600385901b1c1916600184901b178455611264565b5f84815260208120601f198516915b828110156112fb57878501518255602094850194600190920191016112db565b508482101561131857868401515f19600387901b60f8161c191681555b50505050600190811b01905550565b80820180821115610a7c57610a7c6111a8565b608081525f61134c6080830187610da4565b60208301959095525060408101929092521515606090910152919050565b81810381811115610a7c57610a7c6111a856fea2646970667358221220cda146f473509bfb0dcc146b0de84d51d1fc2efff7c53980c4b76b0c4dc1822464736f6c634300081a0033608060405234801561000f575f80fd5b5060405161457838038061457883398101604081905261002e91610202565b60017f9b779b17422d0df92223018b32b4d1fa46e071723d6817e2486d003becc55f005560018054610100600160a81b0319166101006001600160a01b03841602179055600361007e8382610357565b506100895f8461012a565b506100b47fa49807205ce4d355092ef5a8a18f56e8913cf4a201fbe287825b095693c217758461012a565b50506006805460018181019092557ff652222313e28459528d920b65115c16c04f3efc82aaedc97be59f3f377c0d3f0180546001600160a01b039094166001600160a01b0319909416841790555f92835260076020526040909220805460ff199081168417909155825416821790915550610411565b5f828152602081815260408083206001600160a01b038516845290915281205460ff166101ca575f838152602081815260408083206001600160a01b03861684529091529020805460ff191660011790556101823390565b6001600160a01b0316826001600160a01b0316847f2f8788117e7eff1d82e926ec794901d17c78024a50270940304540a733656f0d60405160405180910390a45060016101cd565b505f5b92915050565b80516001600160a01b03811681146101e9575f80fd5b919050565b634e487b7160e01b5f52604160045260245ffd5b5f805f60608486031215610214575f80fd5b61021d846101d3565b60208501519093506001600160401b03811115610238575f80fd5b8401601f81018613610248575f80fd5b80516001600160401b03811115610261576102616101ee565b604051601f8201601f19908116603f011681016001600160401b038111828210171561028f5761028f6101ee565b6040528181528282016020018810156102a6575f80fd5b8160208401602083015e5f602083830101528094505050506102ca604085016101d3565b90509250925092565b600181811c908216806102e757607f821691505b60208210810361030557634e487b7160e01b5f52602260045260245ffd5b50919050565b601f82111561035257805f5260205f20601f840160051c810160208510156103305750805b601f840160051c820191505b8181101561034f575f815560010161033c565b50505b505050565b81516001600160401b03811115610370576103706101ee565b6103848161037e84546102d3565b8461030b565b6020601f8211600181146103b6575f831561039f5750848201515b5f19600385901b1c1916600184901b17845561034f565b5f84815260208120601f198516915b828110156103e557878501518255602094850194600190920191016103c5565b508482101561040257868401515f19600387901b60f8161c191681555b50505050600190811b01905550565b61415a8061041e5f395ff3fe608060405234801561000f575f80fd5b50600436106101db575f3560e01c806370480275116101095780639d7ed7381161009e578063c18cd1021161006e578063c18cd10214610420578063c48b3bcf14610433578063d4c8cef514610446578063d547741f1461044e575f80fd5b80639d7ed738146103d1578063a217fddf146103e4578063aa06372a146103eb578063c0f708ef146103fe575f80fd5b8063904b9f72116100d9578063904b9f7214610385578063918b5be11461039857806391d14854146103ab5780639b6c8539146103be575f80fd5b8063704802751461034357806375b238fc146103565780637e3597ab1461036a5780638b7bf3eb1461037d575f80fd5b8063248a9ca31161017f57806336568abe1161014f57806336568abe146102fd5780634138624a146103105780635a9b0b891461032357806364c3c1661461033b575f80fd5b8063248a9ca31461028f57806324d7806c146102bf5780632f2ff15d146102d257806333eee74a146102e5575f80fd5b806303ee438c116101ba57806303ee438c14610231578063158ef93e14610246578063174ca1ce146102515780631785f53c1461027c575f80fd5b80620acc4f146101df57806301ffc9a7146101f457806303cfb8471461021c575b5f80fd5b6101f26101ed366004611528565b610461565b005b610207610202366004611550565b610501565b60405190151581526020015b60405180910390f35b610224610537565b604051610213919061157e565b610239610597565b60405161021391906115f7565b60015460ff16610207565b600254610264906001600160a01b031681565b6040516001600160a01b039091168152602001610213565b6101f261028a366004611609565b610623565b6102b161029d366004611622565b5f9081526020819052604090206001015490565b604051908152602001610213565b6102076102cd366004611609565b6106ab565b6101f26102e0366004611639565b6106c3565b6001546102649061010090046001600160a01b031681565b6101f261030b366004611639565b6106ed565b61026461031e366004611622565b610725565b61032b6107a0565b6040516102139493929190611663565b6004546102b1565b6101f2610351366004611609565b610854565b6102b15f8051602061410583398151915281565b6102b16103783660046116ea565b61095e565b6006546102b1565b610264610393366004611622565b610a59565b6101f26103a636600461176b565b610a90565b6102076103b9366004611639565b610bca565b6101f26103cc366004611858565b610bf2565b6102646103df366004611622565b610db8565b6102b15f81565b6101f26103f93660046118b1565b610de0565b61020761040c366004611609565b60056020525f908152604090205460ff1681565b6101f261042e3660046118f8565b610e81565b6102646104413660046119fc565b610eef565b610224611090565b6101f261045c366004611639565b611289565b5f80516020614105833981519152610478816112ad565b60015460ff1661049b576040516321c4e35760e21b815260040160405180910390fd5b6002546040516308934a5f60e31b81526001600160a01b038581166004830152602482018590529091169063449a52f8906044015f604051808303815f87803b1580156104e6575f80fd5b505af11580156104f8573d5f803e3d5ffd5b50505050505050565b5f6001600160e01b03198216637965db0b60e01b148061053157506301ffc9a760e01b6001600160e01b03198316145b92915050565b6060600480548060200260200160405190810160405280929190818152602001828054801561058d57602002820191905f5260205f20905b81546001600160a01b0316815260019091019060200180831161056f575b5050505050905090565b600380546105a490611b07565b80601f01602080910402602001604051908101604052809291908181526020018280546105d090611b07565b801561061b5780601f106105f25761010080835404028352916020019161061b565b820191905f5260205f20905b8154815290600101906020018083116105fe57829003601f168201915b505050505081565b5f8051602061410583398151915261063a816112ad565b60015460ff1661065d576040516321c4e35760e21b815260040160405180910390fd5b6106745f8051602061410583398151915283611289565b6040516001600160a01b038316907fa3b62bc36326052d97ea62d63c3d60308ed4c3ea8ac079dd8499f1e9c4f80c0f905f90a25050565b5f6105315f8051602061410583398151915283610bca565b5f828152602081905260409020600101546106dd816112ad565b6106e783836112ba565b50505050565b6001600160a01b03811633146107165760405163334bd91960e11b815260040160405180910390fd5b6107208282611349565b505050565b6006545f9082106107735760405162461bcd60e51b8152602060048201526013602482015272496e646578206f7574206f6620626f756e647360681b60448201526064015b60405180910390fd5b6006828154811061078657610786611b3f565b5f918252602090912001546001600160a01b031692915050565b600254600380546001600160a01b03909216916060915f918291906107c490611b07565b80601f01602080910402602001604051908101604052809291908181526020018280546107f090611b07565b801561083b5780601f106108125761010080835404028352916020019161083b565b820191905f5260205f20905b81548152906001019060200180831161081e57829003601f168201915b5050600454600654989994989097509550929350505050565b5f8051602061410583398151915261086b816112ad565b60015460ff1661088e576040516321c4e35760e21b815260040160405180910390fd5b6001600160a01b0382165f9081526007602052604090205460ff16610910576006805460018082019092557ff652222313e28459528d920b65115c16c04f3efc82aaedc97be59f3f377c0d3f0180546001600160a01b0319166001600160a01b0385169081179091555f908152600760205260409020805460ff191690911790555b6109275f80516020614105833981519152836106c3565b6040516001600160a01b038316907f44d6d25963f097ad14f29f06854a01f575648a1ef82f30e562ccd3889717e339905f90a25050565b5f5f80516020614105833981519152610976816112ad565b60015460ff16610999576040516321c4e35760e21b815260040160405180910390fd5b600254604051637e3597ab60e01b81526001600160a01b0390911690637e3597ab906109d1908a908a908a908a908a90600401611b7b565b6020604051808303815f875af11580156109ed573d5f803e3d5ffd5b505050506040513d601f19601f82011682018060405250810190610a119190611bb6565b9150817f684603a72561181fcb5ca00c37eef06fcc830a3569a71f2167f23a1b3580c58a888886604051610a4793929190611bcd565b60405180910390a25095945050505050565b6004545f908210610a7d5760405163efbcbfff60e01b815260040160405180910390fd5b6004828154811061078657610786611b3f565b5f80516020614105833981519152610aa7816112ad565b60015460ff16610aca576040516321c4e35760e21b815260040160405180910390fd5b5f829003610aeb5760405163128e0ec160e11b815260040160405180910390fd5b5f60038054610af990611b07565b80601f0160208091040260200160405190810160405280929190818152602001828054610b2590611b07565b8015610b705780601f10610b4757610100808354040283529160200191610b70565b820191905f5260205f20905b815481529060010190602001808311610b5357829003601f168201915b50505050509050838360039182610b88929190611c3d565b507f30f5c4b652f95e2a697bda3258896c421eee4f29adce8fe38060f47f7aed91ad818585604051610bbc93929190611cf6565b60405180910390a150505050565b5f918252602082815260408084206001600160a01b0393909316845291905290205460ff1690565b60015460ff1615610c155760405162dc149f60e41b815260040160405180910390fd5b81515f03610c365760405163128e0ec160e11b815260040160405180910390fd5b6001600160a01b038116610c5d57604051639d1f9b7f60e01b815260040160405180910390fd5b610c675f846112ba565b50610c7f5f80516020614105833981519152846112ba565b506006805460018082019092557ff652222313e28459528d920b65115c16c04f3efc82aaedc97be59f3f377c0d3f0180546001600160a01b0319166001600160a01b0386169081179091555f9081526007602052604090819020805460ff1916909217909155513090610cf190611500565b6001600160a01b039091168152602001604051809103905ff080158015610d1a573d5f803e3d5ffd5b50600280546001600160a01b0319166001600160a01b03929092169190911790556003610d478382611d25565b50600180546001600160a81b0319166101006001600160a01b038481169190910260ff19169190911782179091556040519084169030907f30624ce926b15b523c21a774765d76fd82206a30b905ef3ae1064ec99dce359890610dab9086906115f7565b60405180910390a3505050565b60048181548110610dc7575f80fd5b5f918252602090912001546001600160a01b0316905081565b5f80516020614105833981519152610df7816112ad565b60015460ff16610e1a576040516321c4e35760e21b815260040160405180910390fd5b6002546040516355031b9560e11b81526001600160a01b039091169063aa06372a90610e4e90879087908790600401611ddf565b5f604051808303815f87803b158015610e65575f80fd5b505af1158015610e77573d5f803e3d5ffd5b5050505050505050565b5f80516020614105833981519152610e98816112ad565b60015460ff16610ebb576040516321c4e35760e21b815260040160405180910390fd5b6002546040516324e9004760e21b81526001600160a01b03909116906393a4011c90610e4e90879087908790600401611e01565b5f5f80516020614105833981519152610f07816112ad565b60015460ff16610f2a576040516321c4e35760e21b815260040160405180910390fd5b610f326113b2565b600154610f4c9061010090046001600160a01b03166113e0565b60025460405163a5b767c960e01b81529193506001600160a01b038085169263a5b767c992610f8a9230929116908b908b908b908b90600401611e8d565b5f604051808303815f87803b158015610fa1575f80fd5b505af1158015610fb3573d5f803e3d5ffd5b50506004805460018082019092557f8a35acfbc15ff81a39ae7d344fd709f28e8600b4aa8c65c6b64bfe7fe36bd19b0180546001600160a01b0319166001600160a01b0387169081179091555f818152600560205260409020805460ff191690921790915591507f98e26a339a5fc57fc1c56d81b9cc18fa5c1b2f45a4121ded1802183d3546744a9050876110488742611f4b565b604051611056929190611f5e565b60405180910390a261108760017f9b779b17422d0df92223018b32b4d1fa46e071723d6817e2486d003becc55f0055565b50949350505050565b60605f805b60045481101561113c57600481815481106110b2576110b2611b3f565b5f9182526020918290200154604080516308bcf8b560e21b815290516001600160a01b03909216926322f3e2d4926004808401938290030181865afa1580156110fd573d5f803e3d5ffd5b505050506040513d601f19601f820116820180604052508101906111219190611f7f565b15611134578161113081611f9a565b9250505b600101611095565b50806001600160401b03811115611155576111556117a9565b60405190808252806020026020018201604052801561117e578160200160208202803683370190505b5091505f805b60045481101561128357600481815481106111a1576111a1611b3f565b5f9182526020918290200154604080516308bcf8b560e21b815290516001600160a01b03909216926322f3e2d4926004808401938290030181865afa1580156111ec573d5f803e3d5ffd5b505050506040513d601f19601f820116820180604052508101906112109190611f7f565b1561127b576004818154811061122857611228611b3f565b905f5260205f20015f9054906101000a90046001600160a01b031684838151811061125557611255611b3f565b6001600160a01b03909216602092830291909101909101528161127781611f9a565b9250505b600101611184565b50505090565b5f828152602081905260409020600101546112a3816112ad565b6106e78383611349565b6112b781336113eb565b50565b5f6112c58383610bca565b611342575f838152602081815260408083206001600160a01b03861684529091529020805460ff191660011790556112fa3390565b6001600160a01b0316826001600160a01b0316847f2f8788117e7eff1d82e926ec794901d17c78024a50270940304540a733656f0d60405160405180910390a4506001610531565b505f610531565b5f6113548383610bca565b15611342575f838152602081815260408083206001600160a01b0386168085529252808320805460ff1916905551339286917ff6391f5c32d9c69d2a47ea670b442974b53935d1edc7fd64eb21e047a839171b9190a4506001610531565b6113ba611428565b60027f9b779b17422d0df92223018b32b4d1fa46e071723d6817e2486d003becc55f0055565b5f610531825f61146c565b6113f58282610bca565b6114245760405163e2517d3f60e01b81526001600160a01b03821660048201526024810183905260440161076a565b5050565b7f9b779b17422d0df92223018b32b4d1fa46e071723d6817e2486d003becc55f005460020361146a57604051633ee5aeb560e01b815260040160405180910390fd5b565b5f814710156114975760405163cf47918160e01b81524760048201526024810183905260440161076a565b763d602d80600a3d3981f3363d3d373d3d3d363d730000008360601b60e81c175f526e5af43d82803e903d91602b57fd5bf38360781b176020526037600983f090506001600160a01b0381166105315760405163b06ebf3d60e01b815260040160405180910390fd5b61215280611fb383390190565b80356001600160a01b0381168114611523575f80fd5b919050565b5f8060408385031215611539575f80fd5b6115428361150d565b946020939093013593505050565b5f60208284031215611560575f80fd5b81356001600160e01b031981168114611577575f80fd5b9392505050565b602080825282518282018190525f918401906040840190835b818110156115be5783516001600160a01b0316835260209384019390920191600101611597565b509095945050505050565b5f81518084528060208401602086015e5f602082860101526020601f19601f83011685010191505092915050565b602081525f61157760208301846115c9565b5f60208284031215611619575f80fd5b6115778261150d565b5f60208284031215611632575f80fd5b5035919050565b5f806040838503121561164a575f80fd5b8235915061165a6020840161150d565b90509250929050565b6001600160a01b03851681526080602082018190525f90611686908301866115c9565b6040830194909452506060015292915050565b5f8083601f8401126116a9575f80fd5b5081356001600160401b038111156116bf575f80fd5b6020830191508360208285010111156116d6575f80fd5b9250929050565b80151581146112b7575f80fd5b5f805f805f606086880312156116fe575f80fd5b85356001600160401b03811115611713575f80fd5b61171f88828901611699565b90965094505060208601356001600160401b0381111561173d575f80fd5b61174988828901611699565b909450925050604086013561175d816116dd565b809150509295509295909350565b5f806020838503121561177c575f80fd5b82356001600160401b03811115611791575f80fd5b61179d85828601611699565b90969095509350505050565b634e487b7160e01b5f52604160045260245ffd5b604051601f8201601f191681016001600160401b03811182821017156117e5576117e56117a9565b604052919050565b5f82601f8301126117fc575f80fd5b81356001600160401b03811115611815576118156117a9565b611828601f8201601f19166020016117bd565b81815284602083860101111561183c575f80fd5b816020850160208301375f918101602001919091529392505050565b5f805f6060848603121561186a575f80fd5b6118738461150d565b925060208401356001600160401b0381111561188d575f80fd5b611899868287016117ed565b9250506118a86040850161150d565b90509250925092565b5f805f604084860312156118c3575f80fd5b8335925060208401356001600160401b038111156118df575f80fd5b6118eb86828701611699565b9497909650939450505050565b5f805f6040848603121561190a575f80fd5b8335925060208401356001600160401b03811115611926575f80fd5b8401601f81018613611936575f80fd5b80356001600160401b0381111561194b575f80fd5b8660208260051b840101111561195f575f80fd5b939660209190910195509293505050565b5f6001600160401b03821115611988576119886117a9565b5060051b60200190565b5f82601f8301126119a1575f80fd5b81356119b46119af82611970565b6117bd565b8082825260208201915060208360051b8601019250858311156119d5575f80fd5b602085015b838110156119f25780358352602092830192016119da565b5095945050505050565b5f805f8060808587031215611a0f575f80fd5b84356001600160401b03811115611a24575f80fd5b611a30878288016117ed565b94505060208501356001600160401b03811115611a4b575f80fd5b8501601f81018713611a5b575f80fd5b8035611a696119af82611970565b8082825260208201915060208360051b850101925089831115611a8a575f80fd5b602084015b83811015611aca5780356001600160401b03811115611aac575f80fd5b611abb8c6020838901016117ed565b84525060209283019201611a8f565b5095505050506040850135915060608501356001600160401b03811115611aef575f80fd5b611afb87828801611992565b91505092959194509250565b600181811c90821680611b1b57607f821691505b602082108103611b3957634e487b7160e01b5f52602260045260245ffd5b50919050565b634e487b7160e01b5f52603260045260245ffd5b81835281816020850137505f828201602090810191909152601f909101601f19169091010190565b606081525f611b8e606083018789611b53565b8281036020840152611ba1818688611b53565b91505082151560408301529695505050505050565b5f60208284031215611bc6575f80fd5b5051919050565b604081525f611be0604083018587611b53565b90508215156020830152949350505050565b601f82111561072057805f5260205f20601f840160051c81016020851015611c175750805b601f840160051c820191505b81811015611c36575f8155600101611c23565b5050505050565b6001600160401b03831115611c5457611c546117a9565b611c6883611c628354611b07565b83611bf2565b5f601f841160018114611c99575f8515611c825750838201355b5f19600387901b1c1916600186901b178355611c36565b5f83815260208120601f198716915b82811015611cc85786850135825560209485019460019092019101611ca8565b5086821015611ce4575f1960f88860031b161c19848701351681555b505060018560011b0183555050505050565b604081525f611d0860408301866115c9565b8281036020840152611d1b818587611b53565b9695505050505050565b81516001600160401b03811115611d3e57611d3e6117a9565b611d5281611d4c8454611b07565b84611bf2565b6020601f821160018114611d84575f8315611d6d5750848201515b5f19600385901b1c1916600184901b178455611c36565b5f84815260208120601f198516915b82811015611db35787850151825560209485019460019092019101611d93565b5084821015611dd057868401515f19600387901b60f8161c191681555b50505050600190811b01905550565b838152604060208201525f611df8604083018486611b53565b95945050505050565b83815260406020820181905281018290525f8360608301825b85811015611e48576001600160a01b03611e338461150d565b16825260209283019290910190600101611e1a565b509695505050505050565b5f8151808452602084019350602083015f5b82811015611e83578151865260209586019590910190600101611e65565b5093949350505050565b6001600160a01b0387811682528616602082015260c0604082018190525f90611eb8908301876115c9565b828103606084015280865180835260208301915060208160051b840101602089015f5b83811015611f0d57601f19868403018552611ef78383516115c9565b6020958601959093509190910190600101611edb565b505087608087015285810360a0870152611f278188611e53565b9c9b505050505050505050505050565b634e487b7160e01b5f52601160045260245ffd5b8082018082111561053157610531611f37565b604081525f611f7060408301856115c9565b90508260208301529392505050565b5f60208284031215611f8f575f80fd5b8151611577816116dd565b5f60018201611fab57611fab611f37565b506001019056fe608060405234801561000f575f80fd5b5060405161215238038061215283398101604081905261002e9161010f565b60408051602081019091525f81528190610047816100ae565b506001600160a01b03811661007557604051631e4fbdf760e01b81525f600482015260240160405180910390fd5b61007e816100be565b5060017f9b779b17422d0df92223018b32b4d1fa46e071723d6817e2486d003becc55f005550600160045561028e565b60026100ba82826101d4565b5050565b600380546001600160a01b038381166001600160a01b0319831681179093556040519116919082907f8be0079c531659141344cd1fd0a4f28419497f9722a3daafe3b4186f6b6457e0905f90a35050565b5f6020828403121561011f575f80fd5b81516001600160a01b0381168114610135575f80fd5b9392505050565b634e487b7160e01b5f52604160045260245ffd5b600181811c9082168061016457607f821691505b60208210810361018257634e487b7160e01b5f52602260045260245ffd5b50919050565b601f8211156101cf57805f5260205f20601f840160051c810160208510156101ad5750805b601f840160051c820191505b818110156101cc575f81556001016101b9565b50505b505050565b81516001600160401b038111156101ed576101ed61013c565b610201816101fb8454610150565b84610188565b6020601f821160018114610233575f831561021c5750848201515b5f19600385901b1c1916600184901b1784556101cc565b5f84815260208120601f198516915b828110156102625787850151825560209485019460019092019101610242565b508482101561027f57868401515f19600387901b60f8161c191681555b50505050600190811b01905550565b611eb78061029b5f395ff3fe608060405234801561000f575f80fd5b5060043610610131575f3560e01c80637e3597ab116100b4578063a22cb46511610079578063a22cb465146102ad578063aa06372a146102c0578063c6659b74146102d3578063e985e9c5146102e6578063f242432a14610321578063f2fde38b1461032f575f80fd5b80637e3597ab1461022c57806387910cef1461023f5780638da5cb5b1461026c57806393a4011c14610287578063a0712d681461029a575f80fd5b8063449a52f8116100fa578063449a52f8146101d65780634e1273f4146101e95780636d8eb06714610209578063715018a61461021c57806375794a3c14610224575f80fd5b8062fdd58e1461013557806301ffc9a71461015b5780630e89341c1461017e578063135556111461019e5780632eb2c2d6146101c1575b5f80fd5b610148610143366004611441565b610342565b6040519081526020015b60405180910390f35b61016e61016936600461147e565b61036c565b6040519015158152602001610152565b61019161018c366004611499565b6103bb565b60405161015291906114de565b6101b16101ac366004611499565b610492565b60405161015294939291906114f0565b6101d46101cf366004611668565b6105cb565b005b6101d46101e4366004611441565b6105e4565b6101fc6101f7366004611714565b6106be565b604051610152919061180f565b61016e610217366004611868565b61078d565b6101d46107df565b600454610148565b61014861023a366004611902565b6107f2565b61016e61024d366004611980565b600660209081525f928352604080842090915290825290205460ff1681565b6003546040516001600160a01b039091168152602001610152565b6101d46102953660046119aa565b610988565b6101d46102a8366004611499565b610ac9565b6101d46102bb3660046119d8565b610d1a565b6101d46102ce366004611a00565b610d25565b61016e6102e1366004611441565b610d9f565b61016e6102f4366004611a3a565b6001600160a01b039182165f90815260016020908152604080832093909416825291909152205460ff1690565b6101d46101cf366004611a62565b6101d461033d366004611ab5565b610db3565b5f818152602081815260408083206001600160a01b03861684529091528120545b90505b92915050565b5f6001600160e01b03198216636cdb3d1360e11b148061039c57506001600160e01b031982166303a24d0760e21b145b8061036657506301ffc9a760e01b6001600160e01b0319831614610366565b5f81815260056020526040902060020154606090610100900460ff166103f4576040516315fba96960e21b815260040160405180910390fd5b5f828152600560205260409020600101805461040f90611ace565b80601f016020809104026020016040519081016040528092919081815260200182805461043b90611ace565b80156104865780601f1061045d57610100808354040283529160200191610486565b820191905f5260205f20905b81548152906001019060200180831161046957829003601f168201915b50505050509050919050565b60056020525f90815260409020805481906104ac90611ace565b80601f01602080910402602001604051908101604052809291908181526020018280546104d890611ace565b80156105235780601f106104fa57610100808354040283529160200191610523565b820191905f5260205f20905b81548152906001019060200180831161050657829003601f168201915b50505050509080600101805461053890611ace565b80601f016020809104026020016040519081016040528092919081815260200182805461056490611ace565b80156105af5780601f10610586576101008083540402835291602001916105af565b820191905f5260205f20905b81548152906001019060200180831161059257829003601f168201915b5050506002909301549192505060ff8082169161010090041684565b60405163ab064ad360e01b815260040160405180910390fd5b6105ec610ded565b6105f4610e1a565b5f81815260056020526040902060020154610100900460ff1661062a576040516315fba96960e21b815260040160405180910390fd5b5f6106358383610342565b111561065457604051630d3c680960e21b815260040160405180910390fd5b61066f8282600160405180602001604052805f815250610e35565b60405181906001600160a01b038416907f2cf689e09cb05e7e71be603090df76ef66fdfd5f723f4086dd4b3d6eee5c43d9905f90a36106ba60015f80516020611e6283398151915255565b5050565b606081518351146106f45781518351604051635b05999160e01b8152600481019290925260248201526044015b60405180910390fd5b5f83516001600160401b0381111561070e5761070e61152d565b604051908082528060200260200182016040528015610737578160200160208202803683370190505b5090505f5b84518110156107855760208082028601015161076090602080840287010151610342565b82828151811061077257610772611b06565b602090810291909101015260010161073c565b509392505050565b5f805b828110156107d3575f6107bb868686858181106107af576107af611b06565b90506020020135610342565b11156107cb5760019150506107d8565b600101610790565b505f90505b9392505050565b6107e7610ded565b6107f05f610e98565b565b5f6107fb610ded565b5f85900361081c57604051632ef1310560e01b815260040160405180910390fd5b5f83900361083d5760405163683d806b60e11b815260040160405180910390fd5b60048054905f61084c83611b2e565b909155506040805160a06020601f8a0181900402820181019092526080810188815292935091829189908990819085018382808284375f92019190915250505090825250604080516020601f8801819004810282018101909252868152918101919087908790819084018382808284375f92018290525093855250505084151560208084019190915260016040938401528482526005905220815181906108f39082611b8f565b50602082015160018201906109089082611b8f565b506040828101516002909201805460609094015115156101000261ff00199315159390931661ffff1990941693909317919091179091555181907ff2cd81e6cadab6adefe160f282d44f15c8c49feefbf3acb31ed2ed70401cd6c8906109779089908990899089908990611c71565b60405180910390a295945050505050565b610990610ded565b5f83815260056020526040902060020154610100900460ff166109c6576040516315fba96960e21b815260040160405180910390fd5b5f8190036109e6576040516207250560eb1b815260040160405180910390fd5b5f5b81811015610ac3575f848152600660205260408120600191858585818110610a1257610a12611b06565b9050602002016020810190610a279190611ab5565b6001600160a01b0316815260208101919091526040015f20805460ff1916911515919091179055828282818110610a6057610a60611b06565b9050602002016020810190610a759190611ab5565b6001600160a01b0316847f0b39b8705388179ba4a98df9c9c12598313d891f175dd06e571b7aaa02bd607d6001604051610ab3911515815260200190565b60405180910390a36001016109e8565b50505050565b610ad1610e1a565b5f81815260056020526040808220815160808101909252805482908290610af790611ace565b80601f0160208091040260200160405190810160405280929190818152602001828054610b2390611ace565b8015610b6e5780601f10610b4557610100808354040283529160200191610b6e565b820191905f5260205f20905b815481529060010190602001808311610b5157829003601f168201915b50505050508152602001600182018054610b8790611ace565b80601f0160208091040260200160405190810160405280929190818152602001828054610bb390611ace565b8015610bfe5780601f10610bd557610100808354040283529160200191610bfe565b820191905f5260205f20905b815481529060010190602001808311610be157829003601f168201915b50505091835250506002919091015460ff808216151560208401526101009091041615156040909101526060810151909150610c4d576040516315fba96960e21b815260040160405180910390fd5b5f610c583384610342565b1115610c7757604051630d3c680960e21b815260040160405180910390fd5b8060400151610cb9575f82815260066020908152604080832033845290915290205460ff16610cb9576040516306fb10a960e01b815260040160405180910390fd5b610cd43383600160405180602001604052805f815250610e35565b604051829033907f2cf689e09cb05e7e71be603090df76ef66fdfd5f723f4086dd4b3d6eee5c43d9905f90a350610d1760015f80516020611e6283398151915255565b50565b6106ba338383610ee9565b610d2d610ded565b5f83815260056020526040902060020154610100900460ff16610d63576040516315fba96960e21b815260040160405180910390fd5b5f819003610d845760405163683d806b60e11b815260040160405180910390fd5b5f838152600560205260409020600101610ac3828483611cac565b5f80610dab8484610342565b119392505050565b610dbb610ded565b6001600160a01b038116610de457604051631e4fbdf760e01b81525f60048201526024016106eb565b610d1781610e98565b6003546001600160a01b031633146107f05760405163118cdaa760e01b81523360048201526024016106eb565b610e22610f7d565b60025f80516020611e6283398151915255565b6001600160a01b038416610e5e57604051632bfa23e760e11b81525f60048201526024016106eb565b60408051600180825260208201869052818301908152606082018590526080820190925290610e905f87848487610fac565b505050505050565b600380546001600160a01b038381166001600160a01b0319831681179093556040519116919082907f8be0079c531659141344cd1fd0a4f28419497f9722a3daafe3b4186f6b6457e0905f90a35050565b6001600160a01b038216610f115760405162ced3e160e81b81525f60048201526024016106eb565b6001600160a01b038381165f81815260016020908152604080832094871680845294825291829020805460ff191686151590811790915591519182527f17307eab39ab6107e8899845ad3d59bd9653f200f220920489ca2b5937696c31910160405180910390a3505050565b5f80516020611e62833981519152546002036107f057604051633ee5aeb560e01b815260040160405180910390fd5b610fb885858585611006565b6001600160a01b03841615610fff5782513390600103610ff15760208481015190840151610fea838989858589611215565b5050610e90565b610e9081878787878761133f565b5050505050565b80518251146110355781518151604051635b05999160e01b8152600481019290925260248201526044016106eb565b335f5b8351811015611137576020818102858101820151908501909101516001600160a01b038816156110e9575f828152602081815260408083206001600160a01b038c168452909152902054818110156110c3576040516303dee4c560e01b81526001600160a01b038a1660048201526024810182905260448101839052606481018490526084016106eb565b5f838152602081815260408083206001600160a01b038d16845290915290209082900390555b6001600160a01b0387161561112d575f828152602081815260408083206001600160a01b038b16845290915281208054839290611127908490611d65565b90915550505b5050600101611038565b5082516001036111b75760208301515f906020840151909150856001600160a01b0316876001600160a01b0316846001600160a01b03167fc3d58168c5ae7397731d063d5bbf3d657854427343f4c083240f7aacaa2d0f6285856040516111a8929190918252602082015260400190565b60405180910390a45050610fff565b836001600160a01b0316856001600160a01b0316826001600160a01b03167f4a39dc06d4c0dbc64b70af90fd698a233a518aa5d07e595d983b8c0526c8f7fb8686604051611206929190611d78565b60405180910390a45050505050565b6001600160a01b0384163b15610e905760405163f23a6e6160e01b81526001600160a01b0385169063f23a6e61906112599089908990889088908890600401611da5565b6020604051808303815f875af1925050508015611293575060408051601f3d908101601f1916820190925261129091810190611de9565b60015b6112fa573d8080156112c0576040519150601f19603f3d011682016040523d82523d5f602084013e6112c5565b606091505b5080515f036112f257604051632bfa23e760e11b81526001600160a01b03861660048201526024016106eb565b805160208201fd5b6001600160e01b0319811663f23a6e6160e01b1461133657604051632bfa23e760e11b81526001600160a01b03861660048201526024016106eb565b50505050505050565b6001600160a01b0384163b15610e905760405163bc197c8160e01b81526001600160a01b0385169063bc197c81906113839089908990889088908890600401611e04565b6020604051808303815f875af19250505080156113bd575060408051601f3d908101601f191682019092526113ba91810190611de9565b60015b6113ea573d8080156112c0576040519150601f19603f3d011682016040523d82523d5f602084013e6112c5565b6001600160e01b0319811663bc197c8160e01b1461133657604051632bfa23e760e11b81526001600160a01b03861660048201526024016106eb565b80356001600160a01b038116811461143c575f80fd5b919050565b5f8060408385031215611452575f80fd5b61145b83611426565b946020939093013593505050565b6001600160e01b031981168114610d17575f80fd5b5f6020828403121561148e575f80fd5b81356107d881611469565b5f602082840312156114a9575f80fd5b5035919050565b5f81518084528060208401602086015e5f602082860101526020601f19601f83011685010191505092915050565b602081525f61036360208301846114b0565b608081525f61150260808301876114b0565b828103602084015261151481876114b0565b9415156040840152505090151560609091015292915050565b634e487b7160e01b5f52604160045260245ffd5b604051601f8201601f191681016001600160401b03811182821017156115695761156961152d565b604052919050565b5f6001600160401b038211156115895761158961152d565b5060051b60200190565b5f82601f8301126115a2575f80fd5b81356115b56115b082611571565b611541565b8082825260208201915060208360051b8601019250858311156115d6575f80fd5b602085015b838110156115f35780358352602092830192016115db565b5095945050505050565b5f82601f83011261160c575f80fd5b81356001600160401b038111156116255761162561152d565b611638601f8201601f1916602001611541565b81815284602083860101111561164c575f80fd5b816020850160208301375f918101602001919091529392505050565b5f805f805f60a0868803121561167c575f80fd5b61168586611426565b945061169360208701611426565b935060408601356001600160401b038111156116ad575f80fd5b6116b988828901611593565b93505060608601356001600160401b038111156116d4575f80fd5b6116e088828901611593565b92505060808601356001600160401b038111156116fb575f80fd5b611707888289016115fd565b9150509295509295909350565b5f8060408385031215611725575f80fd5b82356001600160401b0381111561173a575f80fd5b8301601f8101851361174a575f80fd5b80356117586115b082611571565b8082825260208201915060208360051b850101925087831115611779575f80fd5b6020840193505b828410156117a25761179184611426565b825260209384019390910190611780565b945050505060208301356001600160401b038111156117bf575f80fd5b6117cb85828601611593565b9150509250929050565b5f8151808452602084019350602083015f5b828110156118055781518652602095860195909101906001016117e7565b5093949350505050565b602081525f61036360208301846117d5565b5f8083601f840112611831575f80fd5b5081356001600160401b03811115611847575f80fd5b6020830191508360208260051b8501011115611861575f80fd5b9250929050565b5f805f6040848603121561187a575f80fd5b61188384611426565b925060208401356001600160401b0381111561189d575f80fd5b6118a986828701611821565b9497909650939450505050565b5f8083601f8401126118c6575f80fd5b5081356001600160401b038111156118dc575f80fd5b602083019150836020828501011115611861575f80fd5b8035801515811461143c575f80fd5b5f805f805f60608688031215611916575f80fd5b85356001600160401b0381111561192b575f80fd5b611937888289016118b6565b90965094505060208601356001600160401b03811115611955575f80fd5b611961888289016118b6565b90945092506119749050604087016118f3565b90509295509295909350565b5f8060408385031215611991575f80fd5b823591506119a160208401611426565b90509250929050565b5f805f604084860312156119bc575f80fd5b8335925060208401356001600160401b0381111561189d575f80fd5b5f80604083850312156119e9575f80fd5b6119f283611426565b91506119a1602084016118f3565b5f805f60408486031215611a12575f80fd5b8335925060208401356001600160401b03811115611a2e575f80fd5b6118a9868287016118b6565b5f8060408385031215611a4b575f80fd5b611a5483611426565b91506119a160208401611426565b5f805f805f60a08688031215611a76575f80fd5b611a7f86611426565b9450611a8d60208701611426565b9350604086013592506060860135915060808601356001600160401b038111156116fb575f80fd5b5f60208284031215611ac5575f80fd5b61036382611426565b600181811c90821680611ae257607f821691505b602082108103611b0057634e487b7160e01b5f52602260045260245ffd5b50919050565b634e487b7160e01b5f52603260045260245ffd5b634e487b7160e01b5f52601160045260245ffd5b5f60018201611b3f57611b3f611b1a565b5060010190565b601f821115611b8a57805f5260205f20601f840160051c81016020851015611b6b5750805b601f840160051c820191505b81811015610fff575f8155600101611b77565b505050565b81516001600160401b03811115611ba857611ba861152d565b611bbc81611bb68454611ace565b84611b46565b6020601f821160018114611bee575f8315611bd75750848201515b5f19600385901b1c1916600184901b178455610fff565b5f84815260208120601f198516915b82811015611c1d5787850151825560209485019460019092019101611bfd565b5084821015611c3a57868401515f19600387901b60f8161c191681555b50505050600190811b01905550565b81835281816020850137505f828201602090810191909152601f909101601f19169091010190565b606081525f611c84606083018789611c49565b8281036020840152611c97818688611c49565b91505082151560408301529695505050505050565b6001600160401b03831115611cc357611cc361152d565b611cd783611cd18354611ace565b83611b46565b5f601f841160018114611d08575f8515611cf15750838201355b5f19600387901b1c1916600186901b178355610fff565b5f83815260208120601f198716915b82811015611d375786850135825560209485019460019092019101611d17565b5086821015611d53575f1960f88860031b161c19848701351681555b505060018560011b0183555050505050565b8082018082111561036657610366611b1a565b604081525f611d8a60408301856117d5565b8281036020840152611d9c81856117d5565b95945050505050565b6001600160a01b03868116825285166020820152604081018490526060810183905260a0608082018190525f90611dde908301846114b0565b979650505050505050565b5f60208284031215611df9575f80fd5b81516107d881611469565b6001600160a01b0386811682528516602082015260a0604082018190525f90611e2f908301866117d5565b8281036060840152611e4181866117d5565b90508281036080840152611e5581856114b0565b9897505050505050505056fe9b779b17422d0df92223018b32b4d1fa46e071723d6817e2486d003becc55f00a2646970667358221220062ec2d824af63442faacca94a2e5a5284cbaac4707a65f433fc5d0c3379176564736f6c634300081a0033a49807205ce4d355092ef5a8a18f56e8913cf4a201fbe287825b095693c21775a2646970667358221220bad9a7b5da09dc7432e0c8627b62870da59d0765bff6cfca40aac469417e9ab264736f6c634300081a0033",
  "devdoc": {
    "details": "Uses minimal clone pattern for gas-efficient Assembly deployment",
    "errors": {
      "FailedDeployment()": [
        {
          "details": "The deployment failed."
        }
      ],
      "InsufficientBalance(uint256,uint256)": [
        {
          "details": "The ETH balance of the account is not enough to perform the operation."
        }
      ],
      "OwnableInvalidOwner(address)": [
        {
          "details": "The owner is not a valid owner account. (eg. `address(0)`)"
        }
      ],
      "OwnableUnauthorizedAccount(address)": [
        {
          "details": "The caller account is not authorized to perform an operation."
        }
      ]
    },
    "kind": "dev",
    "methods": {
      "constructor": {
        "params": {
          "factoryOwner": "Address that will own the factory"
        }
      },
      "createAssembly(string)": {
        "params": {
          "metadataURI": "URI pointing to Assembly metadata (IPFS/URL)"
        },
        "returns": {
          "assemblyAddress": "Address of the newly created Assembly"
        }
      },
      "getAssembliesByCreator(address)": {
        "params": {
          "creator": "Address to query"
        }
      },
      "getAssembliesPaginated(uint256,uint256)": {
        "params": {
          "limit": "Maximum number of results",
          "offset": "Starting index"
        },
        "returns": {
          "paginatedAssemblies": "Array of Assembly addresses",
          "total": "Total number of Assemblies"
        }
      },
      "getAssembly(uint256)": {
        "params": {
          "index": "Index in the assemblies array"
        }
      },
      "getFactoryInfo()": {
        "returns": {
          "assemblyImpl": "Assembly implementation address",
          "contestImpl": "Contest implementation address",
          "factory": "Factory address",
          "totalAssemblies": "Total number of Assemblies created"
        }
      },
      "getRecentAssemblies(uint256)": {
        "params": {
          "count": "Number of recent Assemblies to return"
        }
      },
      "owner()": {
        "details": "Returns the address of the current owner."
      },
      "renounceOwnership()": {
        "details": "Leaves the contract without owner. It will not be possible to call `onlyOwner` functions. Can only be called by the current owner. NOTE: Renouncing ownership will leave the contract without an owner, thereby disabling any functionality that is only available to the owner."
      },
      "transferOwnership(address)": {
        "details": "Transfers ownership of the contract to a new account (`newOwner`). Can only be called by the current owner."
      },
      "verifyAssembly(address)": {
        "params": {
          "potentialAssembly": "Address to verify"
        }
      }
    },
    "title": "AgoraFactory",
    "version": 1
  },
  "userdoc": {
    "kind": "user",
    "methods": {
      "assemblies(uint256)": {
        "notice": "Array of all deployed Assemblies"
      },
      "assembliesByCreator(address,uint256)": {
        "notice": "Mapping from creator to their Assemblies"
      },
      "assemblyImplementation()": {
        "notice": "Implementation contract for Assembly clones"
      },
      "constructor": {
        "notice": "Deploys the factory and implementation contracts"
      },
      "contestImplementation()": {
        "notice": "Implementation contract for Contest clones"
      },
      "createAssembly(string)": {
        "notice": "Creates a new Assembly"
      },
      "getAllAssemblies()": {
        "notice": "Get all Assembly addresses"
      },
      "getAssembliesByCreator(address)": {
        "notice": "Get Assemblies created by a specific address"
      },
      "getAssembliesPaginated(uint256,uint256)": {
        "notice": "Get paginated list of Assemblies"
      },
      "getAssembly(uint256)": {
        "notice": "Get Assembly address at specific index"
      },
      "getAssemblyCount()": {
        "notice": "Get total number of Assemblies"
      },
      "getFactoryInfo()": {
        "notice": "Get factory information"
      },
      "getRecentAssemblies(uint256)": {
        "notice": "Get the most recently created Assemblies"
      },
      "isAssembly(address)": {
        "notice": "Mapping to verify if address is a valid Assembly from this factory"
      },
      "verifyAssembly(address)": {
        "notice": "Verify if an address is a valid Assembly from this factory"
      }
    },
    "notice": "Factory contract for deploying new Assemblies",
    "version": 1
  },
  "storageLayout": {
    "storage": [
      {
        "astId": 388,
        "contract": "contracts/AgoraFactory.sol:AgoraFactory",
        "label": "_owner",
        "offset": 0,
        "slot": "0",
        "type": "t_address"
      },
      {
        "astId": 7908,
        "contract": "contracts/AgoraFactory.sol:AgoraFactory",
        "label": "assemblies",
        "offset": 0,
        "slot": "1",
        "type": "t_array(t_address)dyn_storage"
      },
      {
        "astId": 7913,
        "contract": "contracts/AgoraFactory.sol:AgoraFactory",
        "label": "isAssembly",
        "offset": 0,
        "slot": "2",
        "type": "t_mapping(t_address,t_bool)"
      },
      {
        "astId": 7919,
        "contract": "contracts/AgoraFactory.sol:AgoraFactory",
        "label": "assembliesByCreator",
        "offset": 0,
        "slot": "3",
        "type": "t_mapping(t_address,t_array(t_address)dyn_storage)"
      }
    ],
    "types": {
      "t_address": {
        "encoding": "inplace",
        "label": "address",
        "numberOfBytes": "20"
      },
      "t_array(t_address)dyn_storage": {
        "base": "t_address",
        "encoding": "dynamic_array",
        "label": "address[]",
        "numberOfBytes": "32"
      },
      "t_bool": {
        "encoding": "inplace",
        "label": "bool",
        "numberOfBytes": "1"
      },
      "t_mapping(t_address,t_array(t_address)dyn_storage)": {
        "encoding": "mapping",
        "key": "t_address",
        "label": "mapping(address => address[])",
        "numberOfBytes": "32",
        "value": "t_array(t_address)dyn_storage"
      },
      "t_mapping(t_address,t_bool)": {
        "encoding": "mapping",
        "key": "t_address",
        "label": "mapping(address => bool)",
        "numberOfBytes": "32",
        "value": "t_bool"
      }
    }
  }
}