{
  "address": "0x142eA69fDBB6D7478AEe945dac40b5a0Eee78f8f",
  "abi": [
    {
      "inputs": [
        {
          "internalType": "address",
          "name": "assemblyAddress",
          "type": "address"
        }
      ],
      "stateMutability": "nonpayable",
      "type": "constructor"
    },
    {
      "inputs": [],
      "name": "AlreadyHoldsPassport",
      "type": "error"
    },
    {
      "inputs": [
        {
          "internalType": "address",
          "name": "sender",
          "type": "address"
        },
        {
          "internalType": "uint256",
          "name": "balance",
          "type": "uint256"
        },
        {
          "internalType": "uint256",
          "name": "needed",
          "type": "uint256"
        },
        {
          "internalType": "uint256",
          "name": "tokenId",
          "type": "uint256"
        }
      ],
      "name": "ERC1155InsufficientBalance",
      "type": "error"
    },
    {
      "inputs": [
        {
          "internalType": "address",
          "name": "approver",
          "type": "address"
        }
      ],
      "name": "ERC1155InvalidApprover",
      "type": "error"
    },
    {
      "inputs": [
        {
          "internalType": "uint256",
          "name": "idsLength",
          "type": "uint256"
        },
        {
          "internalType": "uint256",
          "name": "valuesLength",
          "type": "uint256"
        }
      ],
      "name": "ERC1155InvalidArrayLength",
      "type": "error"
    },
    {
      "inputs": [
        {
          "internalType": "address",
          "name": "operator",
          "type": "address"
        }
      ],
      "name": "ERC1155InvalidOperator",
      "type": "error"
    },
    {
      "inputs": [
        {
          "internalType": "address",
          "name": "receiver",
          "type": "address"
        }
      ],
      "name": "ERC1155InvalidReceiver",
      "type": "error"
    },
    {
      "inputs": [
        {
          "internalType": "address",
          "name": "sender",
          "type": "address"
        }
      ],
      "name": "ERC1155InvalidSender",
      "type": "error"
    },
    {
      "inputs": [
        {
          "internalType": "address",
          "name": "operator",
          "type": "address"
        },
        {
          "internalType": "address",
          "name": "owner",
          "type": "address"
        }
      ],
      "name": "ERC1155MissingApprovalForAll",
      "type": "error"
    },
    {
      "inputs": [],
      "name": "EmptyAddressArray",
      "type": "error"
    },
    {
      "inputs": [],
      "name": "EmptyName",
      "type": "error"
    },
    {
      "inputs": [],
      "name": "EmptyURI",
      "type": "error"
    },
    {
      "inputs": [],
      "name": "NotAllowlisted",
      "type": "error"
    },
    {
      "inputs": [
        {
          "internalType": "address",
          "name": "owner",
          "type": "address"
        }
      ],
      "name": "OwnableInvalidOwner",
      "type": "error"
    },
    {
      "inputs": [
        {
          "internalType": "address",
          "name": "account",
          "type": "address"
        }
      ],
      "name": "OwnableUnauthorizedAccount",
      "type": "error"
    },
    {
      "inputs": [],
      "name": "PassportTypeDoesNotExist",
      "type": "error"
    },
    {
      "inputs": [],
      "name": "PassportTypeNotOpen",
      "type": "error"
    },
    {
      "inputs": [],
      "name": "ReentrancyGuardReentrantCall",
      "type": "error"
    },
    {
      "inputs": [],
      "name": "TransfersNotAllowed",
      "type": "error"
    },
    {
      "anonymous": false,
      "inputs": [
        {
          "indexed": true,
          "internalType": "uint256",
          "name": "tokenId",
          "type": "uint256"
        },
        {
          "indexed": true,
          "internalType": "address",
          "name": "account",
          "type": "address"
        },
        {
          "indexed": false,
          "internalType": "bool",
          "name": "allowed",
          "type": "bool"
        }
      ],
      "name": "AllowlistUpdated",
      "type": "event"
    },
    {
      "anonymous": false,
      "inputs": [
        {
          "indexed": true,
          "internalType": "address",
          "name": "account",
          "type": "address"
        },
        {
          "indexed": true,
          "internalType": "address",
          "name": "operator",
          "type": "address"
        },
        {
          "indexed": false,
          "internalType": "bool",
          "name": "approved",
          "type": "bool"
        }
      ],
      "name": "ApprovalForAll",
      "type": "event"
    },
    {
      "anonymous": false,
      "inputs": [
        {
          "indexed": true,
          "internalType": "address",
          "name": "previousOwner",
          "type": "address"
        },
        {
          "indexed": true,
          "internalType": "address",
          "name": "newOwner",
          "type": "address"
        }
      ],
      "name": "OwnershipTransferred",
      "type": "event"
    },
    {
      "anonymous": false,
      "inputs": [
        {
          "indexed": true,
          "internalType": "address",
          "name": "holder",
          "type": "address"
        },
        {
          "indexed": true,
          "internalType": "uint256",
          "name": "tokenId",
          "type": "uint256"
        }
      ],
      "name": "PassportMinted",
      "type": "event"
    },
    {
      "anonymous": false,
      "inputs": [
        {
          "indexed": true,
          "internalType": "uint256",
          "name": "tokenId",
          "type": "uint256"
        },
        {
          "indexed": false,
          "internalType": "string",
          "name": "name",
          "type": "string"
        },
        {
          "indexed": false,
          "internalType": "string",
          "name": "uri",
          "type": "string"
        },
        {
          "indexed": false,
          "internalType": "bool",
          "name": "isOpen",
          "type": "bool"
        }
      ],
      "name": "PassportTypeCreated",
      "type": "event"
    },
    {
      "anonymous": false,
      "inputs": [
        {
          "indexed": true,
          "internalType": "address",
          "name": "operator",
          "type": "address"
        },
        {
          "indexed": true,
          "internalType": "address",
          "name": "from",
          "type": "address"
        },
        {
          "indexed": true,
          "internalType": "address",
          "name": "to",
          "type": "address"
        },
        {
          "indexed": false,
          "internalType": "uint256[]",
          "name": "ids",
          "type": "uint256[]"
        },
        {
          "indexed": false,
          "internalType": "uint256[]",
          "name": "values",
          "type": "uint256[]"
        }
      ],
      "name": "TransferBatch",
      "type": "event"
    },
    {
      "anonymous": false,
      "inputs": [
        {
          "indexed": true,
          "internalType": "address",
          "name": "operator",
          "type": "address"
        },
        {
          "indexed": true,
          "internalType": "address",
          "name": "from",
          "type": "address"
        },
        {
          "indexed": true,
          "internalType": "address",
          "name": "to",
          "type": "address"
        },
        {
          "indexed": false,
          "internalType": "uint256",
          "name": "id",
          "type": "uint256"
        },
        {
          "indexed": false,
          "internalType": "uint256",
          "name": "value",
          "type": "uint256"
        }
      ],
      "name": "TransferSingle",
      "type": "event"
    },
    {
      "anonymous": false,
      "inputs": [
        {
          "indexed": false,
          "internalType": "string",
          "name": "value",
          "type": "string"
        },
        {
          "indexed": true,
          "internalType": "uint256",
          "name": "id",
          "type": "uint256"
        }
      ],
      "name": "URI",
      "type": "event"
    },
    {
      "inputs": [
        {
          "internalType": "uint256",
          "name": "tokenId",
          "type": "uint256"
        },
        {
          "internalType": "address[]",
          "name": "accounts",
          "type": "address[]"
        }
      ],
      "name": "addToAllowlist",
      "outputs": [],
      "stateMutability": "nonpayable",
      "type": "function"
    },
    {
      "inputs": [
        {
          "internalType": "uint256",
          "name": "",
          "type": "uint256"
        },
        {
          "internalType": "address",
          "name": "",
          "type": "address"
        }
      ],
      "name": "allowlist",
      "outputs": [
        {
          "internalType": "bool",
          "name": "",
          "type": "bool"
        }
      ],
      "stateMutability": "view",
      "type": "function"
    },
    {
      "inputs": [
        {
          "internalType": "address",
          "name": "account",
          "type": "address"
        },
        {
          "internalType": "uint256",
          "name": "tokenId",
          "type": "uint256"
        }
      ],
      "name": "balanceOf",
      "outputs": [
        {
          "internalType": "uint256",
          "name": "",
          "type": "uint256"
        }
      ],
      "stateMutability": "view",
      "type": "function"
    },
    {
      "inputs": [
        {
          "internalType": "address[]",
          "name": "accounts",
          "type": "address[]"
        },
        {
          "internalType": "uint256[]",
          "name": "ids",
          "type": "uint256[]"
        }
      ],
      "name": "balanceOfBatch",
      "outputs": [
        {
          "internalType": "uint256[]",
          "name": "",
          "type": "uint256[]"
        }
      ],
      "stateMutability": "view",
      "type": "function"
    },
    {
      "inputs": [
        {
          "internalType": "string",
          "name": "name",
          "type": "string"
        },
        {
          "internalType": "string",
          "name": "metadataUri",
          "type": "string"
        },
        {
          "internalType": "bool",
          "name": "isOpen",
          "type": "bool"
        }
      ],
      "name": "createPassportType",
      "outputs": [
        {
          "internalType": "uint256",
          "name": "tokenId",
          "type": "uint256"
        }
      ],
      "stateMutability": "nonpayable",
      "type": "function"
    },
    {
      "inputs": [
        {
          "internalType": "address",
          "name": "account",
          "type": "address"
        },
        {
          "internalType": "uint256[]",
          "name": "tokenIds",
          "type": "uint256[]"
        }
      ],
      "name": "holdsAnyPassport",
      "outputs": [
        {
          "internalType": "bool",
          "name": "",
          "type": "bool"
        }
      ],
      "stateMutability": "view",
      "type": "function"
    },
    {
      "inputs": [
        {
          "internalType": "address",
          "name": "account",
          "type": "address"
        },
        {
          "internalType": "uint256",
          "name": "tokenId",
          "type": "uint256"
        }
      ],
      "name": "holdsPassport",
      "outputs": [
        {
          "internalType": "bool",
          "name": "",
          "type": "bool"
        }
      ],
      "stateMutability": "view",
      "type": "function"
    },
    {
      "inputs": [
        {
          "internalType": "address",
          "name": "account",
          "type": "address"
        },
        {
          "internalType": "address",
          "name": "operator",
          "type": "address"
        }
      ],
      "name": "isApprovedForAll",
      "outputs": [
        {
          "internalType": "bool",
          "name": "",
          "type": "bool"
        }
      ],
      "stateMutability": "view",
      "type": "function"
    },
    {
      "inputs": [
        {
          "internalType": "uint256",
          "name": "tokenId",
          "type": "uint256"
        }
      ],
      "name": "mint",
      "outputs": [],
      "stateMutability": "nonpayable",
      "type": "function"
    },
    {
      "inputs": [
        {
          "internalType": "address",
          "name": "to",
          "type": "address"
        },
        {
          "internalType": "uint256",
          "name": "tokenId",
          "type": "uint256"
        }
      ],
      "name": "mintTo",
      "outputs": [],
      "stateMutability": "nonpayable",
      "type": "function"
    },
    {
      "inputs": [],
      "name": "nextTokenId",
      "outputs": [
        {
          "internalType": "uint256",
          "name": "",
          "type": "uint256"
        }
      ],
      "stateMutability": "view",
      "type": "function"
    },
    {
      "inputs": [],
      "name": "owner",
      "outputs": [
        {
          "internalType": "address",
          "name": "",
          "type": "address"
        }
      ],
      "stateMutability": "view",
      "type": "function"
    },
    {
      "inputs": [
        {
          "internalType": "uint256",
          "name": "",
          "type": "uint256"
        }
      ],
      "name": "passportTypes",
      "outputs": [
        {
          "internalType": "string",
          "name": "name",
          "type": "string"
        },
        {
          "internalType": "string",
          "name": "uri",
          "type": "string"
        },
        {
          "internalType": "bool",
          "name": "isOpen",
          "type": "bool"
        },
        {
          "internalType": "bool",
          "name": "exists",
          "type": "bool"
        }
      ],
      "stateMutability": "view",
      "type": "function"
    },
    {
      "inputs": [],
      "name": "renounceOwnership",
      "outputs": [],
      "stateMutability": "nonpayable",
      "type": "function"
    },
    {
      "inputs": [
        {
          "internalType": "address",
          "name": "",
          "type": "address"
        },
        {
          "internalType": "address",
          "name": "",
          "type": "address"
        },
        {
          "internalType": "uint256[]",
          "name": "",
          "type": "uint256[]"
        },
        {
          "internalType": "uint256[]",
          "name": "",
          "type": "uint256[]"
        },
        {
          "internalType": "bytes",
          "name": "",
          "type": "bytes"
        }
      ],
      "name": "safeBatchTransferFrom",
      "outputs": [],
      "stateMutability": "pure",
      "type": "function"
    },
    {
      "inputs": [
        {
          "internalType": "address",
          "name": "",
          "type": "address"
        },
        {
          "internalType": "address",
          "name": "",
          "type": "address"
        },
        {
          "internalType": "uint256",
          "name": "",
          "type": "uint256"
        },
        {
          "internalType": "uint256",
          "name": "",
          "type": "uint256"
        },
        {
          "internalType": "bytes",
          "name": "",
          "type": "bytes"
        }
      ],
      "name": "safeTransferFrom",
      "outputs": [],
      "stateMutability": "pure",
      "type": "function"
    },
    {
      "inputs": [
        {
          "internalType": "address",
          "name": "operator",
          "type": "address"
        },
        {
          "internalType": "bool",
          "name": "approved",
          "type": "bool"
        }
      ],
      "name": "setApprovalForAll",
      "outputs": [],
      "stateMutability": "nonpayable",
      "type": "function"
    },
    {
      "inputs": [
        {
          "internalType": "bytes4",
          "name": "interfaceId",
          "type": "bytes4"
        }
      ],
      "name": "supportsInterface",
      "outputs": [
        {
          "internalType": "bool",
          "name": "",
          "type": "bool"
        }
      ],
      "stateMutability": "view",
      "type": "function"
    },
    {
      "inputs": [
        {
          "internalType": "address",
          "name": "newOwner",
          "type": "address"
        }
      ],
      "name": "transferOwnership",
      "outputs": [],
      "stateMutability": "nonpayable",
      "type": "function"
    },
    {
      "inputs": [
        {
          "internalType": "uint256",
          "name": "tokenId",
          "type": "uint256"
        },
        {
          "internalType": "string",
          "name": "newUri",
          "type": "string"
        }
      ],
      "name": "updatePassportURI",
      "outputs": [],
      "stateMutability": "nonpayable",
      "type": "function"
    },
    {
      "inputs": [
        {
          "internalType": "uint256",
          "name": "tokenId",
          "type": "uint256"
        }
      ],
      "name": "uri",
      "outputs": [
        {
          "internalType": "string",
          "name": "",
          "type": "string"
        }
      ],
      "stateMutability": "view",
      "type": "function"
    }
  ],
  "transactionHash": "0xad583860e656951e2e8156d5cdb6c985cda69fbeb84845ec373cca4ef9701da0",
  "args": [
    "0x562baee56Ee12f0b09B86FD38cdB0Ef6f0EB7F4e"
  ],
  "numDeployments": 1,
  "solcInputHash": "9875d4f3fd09f7cbed87daea06762530",
  "bytecode": "0x608060405234801561000f575f80fd5b5060405161215238038061215283398101604081905261002e9161010f565b60408051602081019091525f81528190610047816100ae565b506001600160a01b03811661007557604051631e4fbdf760e01b81525f600482015260240160405180910390fd5b61007e816100be565b5060017f9b779b17422d0df92223018b32b4d1fa46e071723d6817e2486d003becc55f005550600160045561028e565b60026100ba82826101d4565b5050565b600380546001600160a01b038381166001600160a01b0319831681179093556040519116919082907f8be0079c531659141344cd1fd0a4f28419497f9722a3daafe3b4186f6b6457e0905f90a35050565b5f6020828403121561011f575f80fd5b81516001600160a01b0381168114610135575f80fd5b9392505050565b634e487b7160e01b5f52604160045260245ffd5b600181811c9082168061016457607f821691505b60208210810361018257634e487b7160e01b5f52602260045260245ffd5b50919050565b601f8211156101cf57805f5260205f20601f840160051c810160208510156101ad5750805b601f840160051c820191505b818110156101cc575f81556001016101b9565b50505b505050565b81516001600160401b038111156101ed576101ed61013c565b610201816101fb8454610150565b84610188565b6020601f821160018114610233575f831561021c5750848201515b5f19600385901b1c1916600184901b1784556101cc565b5f84815260208120601f198516915b828110156102625787850151825560209485019460019092019101610242565b508482101561027f57868401515f19600387901b60f8161c191681555b50505050600190811b01905550565b611eb78061029b5f395ff3fe608060405234801561000f575f80fd5b5060043610610131575f3560e01c80637e3597ab116100b4578063a22cb46511610079578063a22cb465146102ad578063aa06372a146102c0578063c6659b74146102d3578063e985e9c5146102e6578063f242432a14610321578063f2fde38b1461032f575f80fd5b80637e3597ab1461022c57806387910cef1461023f5780638da5cb5b1461026c57806393a4011c14610287578063a0712d681461029a575f80fd5b8063449a52f8116100fa578063449a52f8146101d65780634e1273f4146101e95780636d8eb06714610209578063715018a61461021c57806375794a3c14610224575f80fd5b8062fdd58e1461013557806301ffc9a71461015b5780630e89341c1461017e578063135556111461019e5780632eb2c2d6146101c1575b5f80fd5b610148610143366004611441565b610342565b6040519081526020015b60405180910390f35b61016e61016936600461147e565b61036c565b6040519015158152602001610152565b61019161018c366004611499565b6103bb565b60405161015291906114de565b6101b16101ac366004611499565b610492565b60405161015294939291906114f0565b6101d46101cf366004611668565b6105cb565b005b6101d46101e4366004611441565b6105e4565b6101fc6101f7366004611714565b6106be565b604051610152919061180f565b61016e610217366004611868565b61078d565b6101d46107df565b600454610148565b61014861023a366004611902565b6107f2565b61016e61024d366004611980565b600660209081525f928352604080842090915290825290205460ff1681565b6003546040516001600160a01b039091168152602001610152565b6101d46102953660046119aa565b610988565b6101d46102a8366004611499565b610ac9565b6101d46102bb3660046119d8565b610d1a565b6101d46102ce366004611a00565b610d25565b61016e6102e1366004611441565b610d9f565b61016e6102f4366004611a3a565b6001600160a01b039182165f90815260016020908152604080832093909416825291909152205460ff1690565b6101d46101cf366004611a62565b6101d461033d366004611ab5565b610db3565b5f818152602081815260408083206001600160a01b03861684529091528120545b90505b92915050565b5f6001600160e01b03198216636cdb3d1360e11b148061039c57506001600160e01b031982166303a24d0760e21b145b8061036657506301ffc9a760e01b6001600160e01b0319831614610366565b5f81815260056020526040902060020154606090610100900460ff166103f4576040516315fba96960e21b815260040160405180910390fd5b5f828152600560205260409020600101805461040f90611ace565b80601f016020809104026020016040519081016040528092919081815260200182805461043b90611ace565b80156104865780601f1061045d57610100808354040283529160200191610486565b820191905f5260205f20905b81548152906001019060200180831161046957829003601f168201915b50505050509050919050565b60056020525f90815260409020805481906104ac90611ace565b80601f01602080910402602001604051908101604052809291908181526020018280546104d890611ace565b80156105235780601f106104fa57610100808354040283529160200191610523565b820191905f5260205f20905b81548152906001019060200180831161050657829003601f168201915b50505050509080600101805461053890611ace565b80601f016020809104026020016040519081016040528092919081815260200182805461056490611ace565b80156105af5780601f10610586576101008083540402835291602001916105af565b820191905f5260205f20905b81548152906001019060200180831161059257829003601f168201915b5050506002909301549192505060ff8082169161010090041684565b60405163ab064ad360e01b815260040160405180910390fd5b6105ec610ded565b6105f4610e1a565b5f81815260056020526040902060020154610100900460ff1661062a576040516315fba96960e21b815260040160405180910390fd5b5f6106358383610342565b111561065457604051630d3c680960e21b815260040160405180910390fd5b61066f8282600160405180602001604052805f815250610e35565b60405181906001600160a01b038416907f2cf689e09cb05e7e71be603090df76ef66fdfd5f723f4086dd4b3d6eee5c43d9905f90a36106ba60015f80516020611e6283398151915255565b5050565b606081518351146106f45781518351604051635b05999160e01b8152600481019290925260248201526044015b60405180910390fd5b5f83516001600160401b0381111561070e5761070e61152d565b604051908082528060200260200182016040528015610737578160200160208202803683370190505b5090505f5b84518110156107855760208082028601015161076090602080840287010151610342565b82828151811061077257610772611b06565b602090810291909101015260010161073c565b509392505050565b5f805b828110156107d3575f6107bb868686858181106107af576107af611b06565b90506020020135610342565b11156107cb5760019150506107d8565b600101610790565b505f90505b9392505050565b6107e7610ded565b6107f05f610e98565b565b5f6107fb610ded565b5f85900361081c57604051632ef1310560e01b815260040160405180910390fd5b5f83900361083d5760405163683d806b60e11b815260040160405180910390fd5b60048054905f61084c83611b2e565b909155506040805160a06020601f8a0181900402820181019092526080810188815292935091829189908990819085018382808284375f92019190915250505090825250604080516020601f8801819004810282018101909252868152918101919087908790819084018382808284375f92018290525093855250505084151560208084019190915260016040938401528482526005905220815181906108f39082611b8f565b50602082015160018201906109089082611b8f565b506040828101516002909201805460609094015115156101000261ff00199315159390931661ffff1990941693909317919091179091555181907ff2cd81e6cadab6adefe160f282d44f15c8c49feefbf3acb31ed2ed70401cd6c8906109779089908990899089908990611c71565b60405180910390a295945050505050565b610990610ded565b5f83815260056020526040902060020154610100900460ff166109c6576040516315fba96960e21b815260040160405180910390fd5b5f8190036109e6576040516207250560eb1b815260040160405180910390fd5b5f5b81811015610ac3575f848152600660205260408120600191858585818110610a1257610a12611b06565b9050602002016020810190610a279190611ab5565b6001600160a01b0316815260208101919091526040015f20805460ff1916911515919091179055828282818110610a6057610a60611b06565b9050602002016020810190610a759190611ab5565b6001600160a01b0316847f0b39b8705388179ba4a98df9c9c12598313d891f175dd06e571b7aaa02bd607d6001604051610ab3911515815260200190565b60405180910390a36001016109e8565b50505050565b610ad1610e1a565b5f81815260056020526040808220815160808101909252805482908290610af790611ace565b80601f0160208091040260200160405190810160405280929190818152602001828054610b2390611ace565b8015610b6e5780601f10610b4557610100808354040283529160200191610b6e565b820191905f5260205f20905b815481529060010190602001808311610b5157829003601f168201915b50505050508152602001600182018054610b8790611ace565b80601f0160208091040260200160405190810160405280929190818152602001828054610bb390611ace565b8015610bfe5780601f10610bd557610100808354040283529160200191610bfe565b820191905f5260205f20905b815481529060010190602001808311610be157829003601f168201915b50505091835250506002919091015460ff808216151560208401526101009091041615156040909101526060810151909150610c4d576040516315fba96960e21b815260040160405180910390fd5b5f610c583384610342565b1115610c7757604051630d3c680960e21b815260040160405180910390fd5b8060400151610cb9575f82815260066020908152604080832033845290915290205460ff16610cb9576040516306fb10a960e01b815260040160405180910390fd5b610cd43383600160405180602001604052805f815250610e35565b604051829033907f2cf689e09cb05e7e71be603090df76ef66fdfd5f723f4086dd4b3d6eee5c43d9905f90a350610d1760015f80516020611e6283398151915255565b50565b6106ba338383610ee9565b610d2d610ded565b5f83815260056020526040902060020154610100900460ff16610d63576040516315fba96960e21b815260040160405180910390fd5b5f819003610d845760405163683d806b60e11b815260040160405180910390fd5b5f838152600560205260409020600101610ac3828483611cac565b5f80610dab8484610342565b119392505050565b610dbb610ded565b6001600160a01b038116610de457604051631e4fbdf760e01b81525f60048201526024016106eb565b610d1781610e98565b6003546001600160a01b031633146107f05760405163118cdaa760e01b81523360048201526024016106eb565b610e22610f7d565b60025f80516020611e6283398151915255565b6001600160a01b038416610e5e57604051632bfa23e760e11b81525f60048201526024016106eb565b60408051600180825260208201869052818301908152606082018590526080820190925290610e905f87848487610fac565b505050505050565b600380546001600160a01b038381166001600160a01b0319831681179093556040519116919082907f8be0079c531659141344cd1fd0a4f28419497f9722a3daafe3b4186f6b6457e0905f90a35050565b6001600160a01b038216610f115760405162ced3e160e81b81525f60048201526024016106eb565b6001600160a01b038381165f81815260016020908152604080832094871680845294825291829020805460ff191686151590811790915591519182527f17307eab39ab6107e8899845ad3d59bd9653f200f220920489ca2b5937696c31910160405180910390a3505050565b5f80516020611e62833981519152546002036107f057604051633ee5aeb560e01b815260040160405180910390fd5b610fb885858585611006565b6001600160a01b03841615610fff5782513390600103610ff15760208481015190840151610fea838989858589611215565b5050610e90565b610e9081878787878761133f565b5050505050565b80518251146110355781518151604051635b05999160e01b8152600481019290925260248201526044016106eb565b335f5b8351811015611137576020818102858101820151908501909101516001600160a01b038816156110e9575f828152602081815260408083206001600160a01b038c168452909152902054818110156110c3576040516303dee4c560e01b81526001600160a01b038a1660048201526024810182905260448101839052606481018490526084016106eb565b5f838152602081815260408083206001600160a01b038d16845290915290209082900390555b6001600160a01b0387161561112d575f828152602081815260408083206001600160a01b038b16845290915281208054839290611127908490611d65565b90915550505b5050600101611038565b5082516001036111b75760208301515f906020840151909150856001600160a01b0316876001600160a01b0316846001600160a01b03167fc3d58168c5ae7397731d063d5bbf3d657854427343f4c083240f7aacaa2d0f6285856040516111a8929190918252602082015260400190565b60405180910390a45050610fff565b836001600160a01b0316856001600160a01b0316826001600160a01b03167f4a39dc06d4c0dbc64b70af90fd698a233a518aa5d07e595d983b8c0526c8f7fb8686604051611206929190611d78565b60405180910390a45050505050565b6001600160a01b0384163b15610e905760405163f23a6e6160e01b81526001600160a01b0385169063f23a6e61906112599089908990889088908890600401611da5565b6020604051808303815f875af1925050508015611293575060408051601f3d908101601f1916820190925261129091810190611de9565b60015b6112fa573d8080156112c0576040519150601f19603f3d011682016040523d82523d5f602084013e6112c5565b606091505b5080515f036112f257604051632bfa23e760e11b81526001600160a01b03861660048201526024016106eb565b805160208201fd5b6001600160e01b0319811663f23a6e6160e01b1461133657604051632bfa23e760e11b81526001600160a01b03861660048201526024016106eb565b50505050505050565b6001600160a01b0384163b15610e905760405163bc197c8160e01b81526001600160a01b0385169063bc197c81906113839089908990889088908890600401611e04565b6020604051808303815f875af19250505080156113bd575060408051601f3d908101601f191682019092526113ba91810190611de9565b60015b6113ea573d8080156112c0576040519150601f19603f3d011682016040523d82523d5f602084013e6112c5565b6001600160e01b0319811663bc197c8160e01b1461133657604051632bfa23e760e11b81526001600160a01b03861660048201526024016106eb565b80356001600160a01b038116811461143c575f80fd5b919050565b5f8060408385031215611452575f80fd5b61145b83611426565b946020939093013593505050565b6001600160e01b031981168114610d17575f80fd5b5f6020828403121561148e575f80fd5b81356107d881611469565b5f602082840312156114a9575f80fd5b5035919050565b5f81518084528060208401602086015e5f602082860101526020601f19601f83011685010191505092915050565b602081525f61036360208301846114b0565b608081525f61150260808301876114b0565b828103602084015261151481876114b0565b9415156040840152505090151560609091015292915050565b634e487b7160e01b5f52604160045260245ffd5b604051601f8201601f191681016001600160401b03811182821017156115695761156961152d565b604052919050565b5f6001600160401b038211156115895761158961152d565b5060051b60200190565b5f82601f8301126115a2575f80fd5b81356115b56115b082611571565b611541565b8082825260208201915060208360051b8601019250858311156115d6575f80fd5b602085015b838110156115f35780358352602092830192016115db565b5095945050505050565b5f82601f83011261160c575f80fd5b81356001600160401b038111156116255761162561152d565b611638601f8201601f1916602001611541565b81815284602083860101111561164c575f80fd5b816020850160208301375f918101602001919091529392505050565b5f805f805f60a0868803121561167c575f80fd5b61168586611426565b945061169360208701611426565b935060408601356001600160401b038111156116ad575f80fd5b6116b988828901611593565b93505060608601356001600160401b038111156116d4575f80fd5b6116e088828901611593565b92505060808601356001600160401b038111156116fb575f80fd5b611707888289016115fd565b9150509295509295909350565b5f8060408385031215611725575f80fd5b82356001600160401b0381111561173a575f80fd5b8301601f8101851361174a575f80fd5b80356117586115b082611571565b8082825260208201915060208360051b850101925087831115611779575f80fd5b6020840193505b828410156117a25761179184611426565b825260209384019390910190611780565b945050505060208301356001600160401b038111156117bf575f80fd5b6117cb85828601611593565b9150509250929050565b5f8151808452602084019350602083015f5b828110156118055781518652602095860195909101906001016117e7565b5093949350505050565b602081525f61036360208301846117d5565b5f8083601f840112611831575f80fd5b5081356001600160401b03811115611847575f80fd5b6020830191508360208260051b8501011115611861575f80fd5b9250929050565b5f805f6040848603121561187a575f80fd5b61188384611426565b925060208401356001600160401b0381111561189d575f80fd5b6118a986828701611821565b9497909650939450505050565b5f8083601f8401126118c6575f80fd5b5081356001600160401b038111156118dc575f80fd5b602083019150836020828501011115611861575f80fd5b8035801515811461143c575f80fd5b5f805f805f60608688031215611916575f80fd5b85356001600160401b0381111561192b575f80fd5b611937888289016118b6565b90965094505060208601356001600160401b03811115611955575f80fd5b611961888289016118b6565b90945092506119749050604087016118f3565b90509295509295909350565b5f8060408385031215611991575f80fd5b823591506119a160208401611426565b90509250929050565b5f805f604084860312156119bc575f80fd5b8335925060208401356001600160401b0381111561189d575f80fd5b5f80604083850312156119e9575f80fd5b6119f283611426565b91506119a1602084016118f3565b5f805f60408486031215611a12575f80fd5b8335925060208401356001600160401b03811115611a2e575f80fd5b6118a9868287016118b6565b5f8060408385031215611a4b575f80fd5b611a5483611426565b91506119a160208401611426565b5f805f805f60a08688031215611a76575f80fd5b611a7f86611426565b9450611a8d60208701611426565b9350604086013592506060860135915060808601356001600160401b038111156116fb575f80fd5b5f60208284031215611ac5575f80fd5b61036382611426565b600181811c90821680611ae257607f821691505b602082108103611b0057634e487b7160e01b5f52602260045260245ffd5b50919050565b634e487b7160e01b5f52603260045260245ffd5b634e487b7160e01b5f52601160045260245ffd5b5f60018201611b3f57611b3f611b1a565b5060010190565b601f821115611b8a57805f5260205f20601f840160051c81016020851015611b6b5750805b601f840160051c820191505b81811015610fff575f8155600101611b77565b505050565b81516001600160401b03811115611ba857611ba861152d565b611bbc81611bb68454611ace565b84611b46565b6020601f821160018114611bee575f8315611bd75750848201515b5f19600385901b1c1916600184901b178455610fff565b5f84815260208120601f198516915b82811015611c1d5787850151825560209485019460019092019101611bfd565b5084821015611c3a57868401515f19600387901b60f8161c191681555b50505050600190811b01905550565b81835281816020850137505f828201602090810191909152601f909101601f19169091010190565b606081525f611c84606083018789611c49565b8281036020840152611c97818688611c49565b91505082151560408301529695505050505050565b6001600160401b03831115611cc357611cc361152d565b611cd783611cd18354611ace565b83611b46565b5f601f841160018114611d08575f8515611cf15750838201355b5f19600387901b1c1916600186901b178355610fff565b5f83815260208120601f198716915b82811015611d375786850135825560209485019460019092019101611d17565b5086821015611d53575f1960f88860031b161c19848701351681555b505060018560011b0183555050505050565b8082018082111561036657610366611b1a565b604081525f611d8a60408301856117d5565b8281036020840152611d9c81856117d5565b95945050505050565b6001600160a01b03868116825285166020820152604081018490526060810183905260a0608082018190525f90611dde908301846114b0565b979650505050505050565b5f60208284031215611df9575f80fd5b81516107d881611469565b6001600160a01b0386811682528516602082015260a0604082018190525f90611e2f908301866117d5565b8281036060840152611e4181866117d5565b90508281036080840152611e5581856114b0565b9897505050505050505056fe9b779b17422d0df92223018b32b4d1fa46e071723d6817e2486d003becc55f00a2646970667358221220062ec2d824af63442faacca94a2e5a5284cbaac4707a65f433fc5d0c3379176564736f6c634300081a0033",
  "devdoc": {
    "details": "Each token ID represents a different passport type (member, contributor, etc.)",
    "errors": {
      "ERC1155InsufficientBalance(address,uint256,uint256,uint256)": [
        {
          "details": "Indicates an error related to the current `balance` of a `sender`. Used in transfers.",
          "params": {
            "balance": "Current balance for the interacting account.",
            "needed": "Minimum amount required to perform a transfer.",
            "sender": "Address whose tokens are being transferred.",
            "tokenId": "Identifier number of a token."
          }
        }
      ],
      "ERC1155InvalidApprover(address)": [
        {
          "details": "Indicates a failure with the `approver` of a token to be approved. Used in approvals.",
          "params": {
            "approver": "Address initiating an approval operation."
          }
        }
      ],
      "ERC1155InvalidArrayLength(uint256,uint256)": [
        {
          "details": "Indicates an array length mismatch between ids and values in a safeBatchTransferFrom operation. Used in batch transfers.",
          "params": {
            "idsLength": "Length of the array of token identifiers",
            "valuesLength": "Length of the array of token amounts"
          }
        }
      ],
      "ERC1155InvalidOperator(address)": [
        {
          "details": "Indicates a failure with the `operator` to be approved. Used in approvals.",
          "params": {
            "operator": "Address that may be allowed to operate on tokens without being their owner."
          }
        }
      ],
      "ERC1155InvalidReceiver(address)": [
        {
          "details": "Indicates a failure with the token `receiver`. Used in transfers.",
          "params": {
            "receiver": "Address to which tokens are being transferred."
          }
        }
      ],
      "ERC1155InvalidSender(address)": [
        {
          "details": "Indicates a failure with the token `sender`. Used in transfers.",
          "params": {
            "sender": "Address whose tokens are being transferred."
          }
        }
      ],
      "ERC1155MissingApprovalForAll(address,address)": [
        {
          "details": "Indicates a failure with the `operator`s approval. Used in transfers.",
          "params": {
            "operator": "Address that may be allowed to operate on tokens without being their owner.",
            "owner": "Address of the current owner of a token."
          }
        }
      ],
      "OwnableInvalidOwner(address)": [
        {
          "details": "The owner is not a valid owner account. (eg. `address(0)`)"
        }
      ],
      "OwnableUnauthorizedAccount(address)": [
        {
          "details": "The caller account is not authorized to perform an operation."
        }
      ],
      "ReentrancyGuardReentrantCall()": [
        {
          "details": "Unauthorized reentrant call."
        }
      ]
    },
    "events": {
      "ApprovalForAll(address,address,bool)": {
        "details": "Emitted when `account` grants or revokes permission to `operator` to transfer their tokens, according to `approved`."
      },
      "TransferBatch(address,address,address,uint256[],uint256[])": {
        "details": "Equivalent to multiple {TransferSingle} events, where `operator`, `from` and `to` are the same for all transfers."
      },
      "TransferSingle(address,address,address,uint256,uint256)": {
        "details": "Emitted when `value` amount of tokens of type `id` are transferred from `from` to `to` by `operator`."
      },
      "URI(string,uint256)": {
        "details": "Emitted when the URI for token type `id` changes to `value`, if it is a non-programmatic URI. If an {URI} event was emitted for `id`, the standard https://eips.ethereum.org/EIPS/eip-1155#metadata-extensions[guarantees] that `value` will equal the value returned by {IERC1155MetadataURI-uri}."
      }
    },
    "kind": "dev",
    "methods": {
      "addToAllowlist(uint256,address[])": {
        "params": {
          "accounts": "Array of addresses to allowlist",
          "tokenId": "The passport type ID"
        }
      },
      "balanceOf(address,uint256)": {
        "params": {
          "account": "Address to query",
          "tokenId": "Passport type ID"
        }
      },
      "balanceOfBatch(address[],uint256[])": {
        "details": "See {IERC1155-balanceOfBatch}. Requirements: - `accounts` and `ids` must have the same length."
      },
      "constructor": {
        "params": {
          "assemblyAddress": "The Assembly contract that owns this passport system"
        }
      },
      "createPassportType(string,string,bool)": {
        "params": {
          "isOpen": "Whether anyone can mint (true) or allowlist only (false)",
          "metadataUri": "URI pointing to passport metadata (IPFS/URL)",
          "name": "Human-readable name for this passport type"
        },
        "returns": {
          "tokenId": "The ID of the newly created passport type"
        }
      },
      "holdsAnyPassport(address,uint256[])": {
        "params": {
          "account": "Address to check",
          "tokenIds": "Array of passport type IDs"
        }
      },
      "holdsPassport(address,uint256)": {
        "params": {
          "account": "Address to check",
          "tokenId": "Passport type ID"
        }
      },
      "isApprovedForAll(address,address)": {
        "details": "Returns true if `operator` is approved to transfer ``account``'s tokens. See {setApprovalForAll}."
      },
      "mint(uint256)": {
        "params": {
          "tokenId": "The passport type to mint"
        }
      },
      "mintTo(address,uint256)": {
        "params": {
          "to": "Address to mint passport to",
          "tokenId": "The passport type to mint"
        }
      },
      "owner()": {
        "details": "Returns the address of the current owner."
      },
      "renounceOwnership()": {
        "details": "Leaves the contract without owner. It will not be possible to call `onlyOwner` functions. Can only be called by the current owner. NOTE: Renouncing ownership will leave the contract without an owner, thereby disabling any functionality that is only available to the owner."
      },
      "setApprovalForAll(address,bool)": {
        "details": "Grants or revokes permission to `operator` to transfer the caller's tokens, according to `approved`, Emits an {ApprovalForAll} event. Requirements: - `operator` cannot be the zero address."
      },
      "supportsInterface(bytes4)": {
        "details": "Returns true if this contract implements the interface defined by `interfaceId`. See the corresponding https://eips.ethereum.org/EIPS/eip-165#how-interfaces-are-identified[ERC section] to learn more about how these ids are created. This function call must use less than 30 000 gas."
      },
      "transferOwnership(address)": {
        "details": "Transfers ownership of the contract to a new account (`newOwner`). Can only be called by the current owner."
      },
      "updatePassportURI(uint256,string)": {
        "params": {
          "newUri": "New metadata URI",
          "tokenId": "The passport type ID"
        }
      },
      "uri(uint256)": {
        "params": {
          "tokenId": "The passport type ID"
        }
      }
    },
    "title": "AssemblyPassports",
    "version": 1
  },
  "userdoc": {
    "kind": "user",
    "methods": {
      "addToAllowlist(uint256,address[])": {
        "notice": "Adds addresses to the allowlist for a passport type"
      },
      "allowlist(uint256,address)": {
        "notice": "Allowlist: tokenId => address => allowed"
      },
      "balanceOf(address,uint256)": {
        "notice": "Returns the balance of passports held by an account for a specific type"
      },
      "constructor": {
        "notice": "Initializes the passport contract"
      },
      "createPassportType(string,string,bool)": {
        "notice": "Creates a new passport type"
      },
      "holdsAnyPassport(address,uint256[])": {
        "notice": "Checks if an address holds any of the specified passports"
      },
      "holdsPassport(address,uint256)": {
        "notice": "Checks if an address holds a specific passport"
      },
      "mint(uint256)": {
        "notice": "Mints a passport to the caller"
      },
      "mintTo(address,uint256)": {
        "notice": "Mints a passport to a specific address (admin only)"
      },
      "nextTokenId()": {
        "notice": "Gets the next token ID that will be assigned"
      },
      "passportTypes(uint256)": {
        "notice": "Mapping from token ID to passport type config"
      },
      "safeBatchTransferFrom(address,address,uint256[],uint256[],bytes)": {
        "notice": "Overrides to make passports non-transferable (soulbound)"
      },
      "safeTransferFrom(address,address,uint256,uint256,bytes)": {
        "notice": "Overrides to make passports non-transferable (soulbound)"
      },
      "updatePassportURI(uint256,string)": {
        "notice": "Updates the URI for a passport type"
      },
      "uri(uint256)": {
        "notice": "Returns the URI for a specific passport type"
      }
    },
    "notice": "Non-transferable ERC-1155 membership credentials for an Assembly",
    "version": 1
  },
  "storageLayout": {
    "storage": [
      {
        "astId": 1105,
        "contract": "contracts/AssemblyPassports.sol:AssemblyPassports",
        "label": "_balances",
        "offset": 0,
        "slot": "0",
        "type": "t_mapping(t_uint256,t_mapping(t_address,t_uint256))"
      },
      {
        "astId": 1111,
        "contract": "contracts/AssemblyPassports.sol:AssemblyPassports",
        "label": "_operatorApprovals",
        "offset": 0,
        "slot": "1",
        "type": "t_mapping(t_address,t_mapping(t_address,t_bool))"
      },
      {
        "astId": 1113,
        "contract": "contracts/AssemblyPassports.sol:AssemblyPassports",
        "label": "_uri",
        "offset": 0,
        "slot": "2",
        "type": "t_string_storage"
      },
      {
        "astId": 388,
        "contract": "contracts/AssemblyPassports.sol:AssemblyPassports",
        "label": "_owner",
        "offset": 0,
        "slot": "3",
        "type": "t_address"
      },
      {
        "astId": 9003,
        "contract": "contracts/AssemblyPassports.sol:AssemblyPassports",
        "label": "_nextTokenId",
        "offset": 0,
        "slot": "4",
        "type": "t_uint256"
      },
      {
        "astId": 9009,
        "contract": "contracts/AssemblyPassports.sol:AssemblyPassports",
        "label": "passportTypes",
        "offset": 0,
        "slot": "5",
        "type": "t_mapping(t_uint256,t_struct(PassportType)10338_storage)"
      },
      {
        "astId": 9016,
        "contract": "contracts/AssemblyPassports.sol:AssemblyPassports",
        "label": "allowlist",
        "offset": 0,
        "slot": "6",
        "type": "t_mapping(t_uint256,t_mapping(t_address,t_bool))"
      }
    ],
    "types": {
      "t_address": {
        "encoding": "inplace",
        "label": "address",
        "numberOfBytes": "20"
      },
      "t_bool": {
        "encoding": "inplace",
        "label": "bool",
        "numberOfBytes": "1"
      },
      "t_mapping(t_address,t_bool)": {
        "encoding": "mapping",
        "key": "t_address",
        "label": "mapping(address => bool)",
        "numberOfBytes": "32",
        "value": "t_bool"
      },
      "t_mapping(t_address,t_mapping(t_address,t_bool))": {
        "encoding": "mapping",
        "key": "t_address",
        "label": "mapping(address => mapping(address => bool))",
        "numberOfBytes": "32",
        "value": "t_mapping(t_address,t_bool)"
      },
      "t_mapping(t_address,t_uint256)": {
        "encoding": "mapping",
        "key": "t_address",
        "label": "mapping(address => uint256)",
        "numberOfBytes": "32",
        "value": "t_uint256"
      },
      "t_mapping(t_uint256,t_mapping(t_address,t_bool))": {
        "encoding": "mapping",
        "key": "t_uint256",
        "label": "mapping(uint256 => mapping(address => bool))",
        "numberOfBytes": "32",
        "value": "t_mapping(t_address,t_bool)"
      },
      "t_mapping(t_uint256,t_mapping(t_address,t_uint256))": {
        "encoding": "mapping",
        "key": "t_uint256",
        "label": "mapping(uint256 => mapping(address => uint256))",
        "numberOfBytes": "32",
        "value": "t_mapping(t_address,t_uint256)"
      },
      "t_mapping(t_uint256,t_struct(PassportType)10338_storage)": {
        "encoding": "mapping",
        "key": "t_uint256",
        "label": "mapping(uint256 => struct IAssemblyPassports.PassportType)",
        "numberOfBytes": "32",
        "value": "t_struct(PassportType)10338_storage"
      },
      "t_string_storage": {
        "encoding": "bytes",
        "label": "string",
        "numberOfBytes": "32"
      },
      "t_struct(PassportType)10338_storage": {
        "encoding": "inplace",
        "label": "struct IAssemblyPassports.PassportType",
        "members": [
          {
            "astId": 10331,
            "contract": "contracts/AssemblyPassports.sol:AssemblyPassports",
            "label": "name",
            "offset": 0,
            "slot": "0",
            "type": "t_string_storage"
          },
          {
            "astId": 10333,
            "contract": "contracts/AssemblyPassports.sol:AssemblyPassports",
            "label": "uri",
            "offset": 0,
            "slot": "1",
            "type": "t_string_storage"
          },
          {
            "astId": 10335,
            "contract": "contracts/AssemblyPassports.sol:AssemblyPassports",
            "label": "isOpen",
            "offset": 0,
            "slot": "2",
            "type": "t_bool"
          },
          {
            "astId": 10337,
            "contract": "contracts/AssemblyPassports.sol:AssemblyPassports",
            "label": "exists",
            "offset": 1,
            "slot": "2",
            "type": "t_bool"
          }
        ],
        "numberOfBytes": "96"
      },
      "t_uint256": {
        "encoding": "inplace",
        "label": "uint256",
        "numberOfBytes": "32"
      }
    }
  }
}