{
  "address": "0x64236f3B0C673763E1a3ea3070630638F779230e",
  "abi": [
    {
      "inputs": [],
      "name": "AlreadyInitialized",
      "type": "error"
    },
    {
      "inputs": [],
      "name": "AlreadyVoted",
      "type": "error"
    },
    {
      "inputs": [],
      "name": "EmptyOption",
      "type": "error"
    },
    {
      "inputs": [],
      "name": "EmptyPrompt",
      "type": "error"
    },
    {
      "inputs": [],
      "name": "InvalidOption",
      "type": "error"
    },
    {
      "inputs": [],
      "name": "InvalidVotingPeriod",
      "type": "error"
    },
    {
      "inputs": [],
      "name": "MissingRequiredPassport",
      "type": "error"
    },
    {
      "inputs": [],
      "name": "NotEnoughOptions",
      "type": "error"
    },
    {
      "inputs": [],
      "name": "NotInitialized",
      "type": "error"
    },
    {
      "inputs": [],
      "name": "OnlyAssembly",
      "type": "error"
    },
    {
      "inputs": [],
      "name": "ReentrancyGuardReentrantCall",
      "type": "error"
    },
    {
      "inputs": [],
      "name": "TooManyOptions",
      "type": "error"
    },
    {
      "inputs": [],
      "name": "VotingEnded",
      "type": "error"
    },
    {
      "inputs": [],
      "name": "VotingNotEnded",
      "type": "error"
    },
    {
      "anonymous": false,
      "inputs": [
        {
          "indexed": true,
          "internalType": "address",
          "name": "assemblyAddress",
          "type": "address"
        },
        {
          "indexed": false,
          "internalType": "string",
          "name": "prompt",
          "type": "string"
        },
        {
          "indexed": false,
          "internalType": "uint256",
          "name": "votingEnd",
          "type": "uint256"
        },
        {
          "indexed": false,
          "internalType": "uint256",
          "name": "optionsCount",
          "type": "uint256"
        },
        {
          "indexed": false,
          "internalType": "bool",
          "name": "isGated",
          "type": "bool"
        }
      ],
      "name": "ContestCreated",
      "type": "event"
    },
    {
      "anonymous": false,
      "inputs": [
        {
          "indexed": true,
          "internalType": "address",
          "name": "voter",
          "type": "address"
        },
        {
          "indexed": true,
          "internalType": "uint256",
          "name": "optionIndex",
          "type": "uint256"
        }
      ],
      "name": "VoteCast",
      "type": "event"
    },
    {
      "inputs": [],
      "name": "MAX_OPTIONS",
      "outputs": [
        {
          "internalType": "uint256",
          "name": "",
          "type": "uint256"
        }
      ],
      "stateMutability": "view",
      "type": "function"
    },
    {
      "inputs": [
        {
          "internalType": "address",
          "name": "_assembly",
          "type": "address"
        },
        {
          "internalType": "address",
          "name": "_passports",
          "type": "address"
        },
        {
          "internalType": "string",
          "name": "_prompt",
          "type": "string"
        },
        {
          "internalType": "string[]",
          "name": "_options",
          "type": "string[]"
        },
        {
          "internalType": "uint256",
          "name": "_votingDuration",
          "type": "uint256"
        },
        {
          "internalType": "uint256[]",
          "name": "_requiredPassports",
          "type": "uint256[]"
        }
      ],
      "name": "__init",
      "outputs": [],
      "stateMutability": "nonpayable",
      "type": "function"
    },
    {
      "inputs": [],
      "name": "assemblyAddress",
      "outputs": [
        {
          "internalType": "address",
          "name": "",
          "type": "address"
        }
      ],
      "stateMutability": "view",
      "type": "function"
    },
    {
      "inputs": [
        {
          "internalType": "address",
          "name": "voter",
          "type": "address"
        }
      ],
      "name": "canVote",
      "outputs": [
        {
          "internalType": "bool",
          "name": "",
          "type": "bool"
        }
      ],
      "stateMutability": "view",
      "type": "function"
    },
    {
      "inputs": [],
      "name": "getOptions",
      "outputs": [
        {
          "internalType": "string[]",
          "name": "",
          "type": "string[]"
        }
      ],
      "stateMutability": "view",
      "type": "function"
    },
    {
      "inputs": [],
      "name": "getRequiredPassports",
      "outputs": [
        {
          "internalType": "uint256[]",
          "name": "",
          "type": "uint256[]"
        }
      ],
      "stateMutability": "view",
      "type": "function"
    },
    {
      "inputs": [],
      "name": "getResults",
      "outputs": [
        {
          "internalType": "string[]",
          "name": "optionNames",
          "type": "string[]"
        },
        {
          "internalType": "uint256[]",
          "name": "votes",
          "type": "uint256[]"
        },
        {
          "internalType": "uint256",
          "name": "total",
          "type": "uint256"
        }
      ],
      "stateMutability": "view",
      "type": "function"
    },
    {
      "inputs": [],
      "name": "getWinner",
      "outputs": [
        {
          "internalType": "uint256",
          "name": "winningIndex",
          "type": "uint256"
        },
        {
          "internalType": "uint256",
          "name": "winningVotes",
          "type": "uint256"
        }
      ],
      "stateMutability": "view",
      "type": "function"
    },
    {
      "inputs": [
        {
          "internalType": "address",
          "name": "",
          "type": "address"
        }
      ],
      "name": "hasVoted",
      "outputs": [
        {
          "internalType": "bool",
          "name": "",
          "type": "bool"
        }
      ],
      "stateMutability": "view",
      "type": "function"
    },
    {
      "inputs": [],
      "name": "initialized",
      "outputs": [
        {
          "internalType": "bool",
          "name": "",
          "type": "bool"
        }
      ],
      "stateMutability": "view",
      "type": "function"
    },
    {
      "inputs": [],
      "name": "isActive",
      "outputs": [
        {
          "internalType": "bool",
          "name": "",
          "type": "bool"
        }
      ],
      "stateMutability": "view",
      "type": "function"
    },
    {
      "inputs": [],
      "name": "isGated",
      "outputs": [
        {
          "internalType": "bool",
          "name": "",
          "type": "bool"
        }
      ],
      "stateMutability": "view",
      "type": "function"
    },
    {
      "inputs": [
        {
          "internalType": "uint256",
          "name": "",
          "type": "uint256"
        }
      ],
      "name": "options",
      "outputs": [
        {
          "internalType": "string",
          "name": "",
          "type": "string"
        }
      ],
      "stateMutability": "view",
      "type": "function"
    },
    {
      "inputs": [],
      "name": "passports",
      "outputs": [
        {
          "internalType": "address",
          "name": "",
          "type": "address"
        }
      ],
      "stateMutability": "view",
      "type": "function"
    },
    {
      "inputs": [],
      "name": "prompt",
      "outputs": [
        {
          "internalType": "string",
          "name": "",
          "type": "string"
        }
      ],
      "stateMutability": "view",
      "type": "function"
    },
    {
      "inputs": [
        {
          "internalType": "uint256",
          "name": "",
          "type": "uint256"
        }
      ],
      "name": "requiredPassports",
      "outputs": [
        {
          "internalType": "uint256",
          "name": "",
          "type": "uint256"
        }
      ],
      "stateMutability": "view",
      "type": "function"
    },
    {
      "inputs": [],
      "name": "timeRemaining",
      "outputs": [
        {
          "internalType": "uint256",
          "name": "",
          "type": "uint256"
        }
      ],
      "stateMutability": "view",
      "type": "function"
    },
    {
      "inputs": [],
      "name": "totalVotes",
      "outputs": [
        {
          "internalType": "uint256",
          "name": "",
          "type": "uint256"
        }
      ],
      "stateMutability": "view",
      "type": "function"
    },
    {
      "inputs": [
        {
          "internalType": "address",
          "name": "",
          "type": "address"
        }
      ],
      "name": "userVote",
      "outputs": [
        {
          "internalType": "uint256",
          "name": "",
          "type": "uint256"
        }
      ],
      "stateMutability": "view",
      "type": "function"
    },
    {
      "inputs": [
        {
          "internalType": "uint256",
          "name": "optionIndex",
          "type": "uint256"
        }
      ],
      "name": "vote",
      "outputs": [],
      "stateMutability": "nonpayable",
      "type": "function"
    },
    {
      "inputs": [
        {
          "internalType": "uint256",
          "name": "",
          "type": "uint256"
        }
      ],
      "name": "voteTally",
      "outputs": [
        {
          "internalType": "uint256",
          "name": "",
          "type": "uint256"
        }
      ],
      "stateMutability": "view",
      "type": "function"
    },
    {
      "inputs": [],
      "name": "votingEnd",
      "outputs": [
        {
          "internalType": "uint256",
          "name": "",
          "type": "uint256"
        }
      ],
      "stateMutability": "view",
      "type": "function"
    }
  ],
  "transactionHash": "0xe23a7b909eb8818a8433633e2bf103059d43e6f23086791e1cd2593a5f3100d4",
  "args": [],
  "numDeployments": 1,
  "solcInputHash": "9875d4f3fd09f7cbed87daea06762530",
  "bytecode": "0x6080604052348015600e575f80fd5b5060017f9b779b17422d0df92223018b32b4d1fa46e071723d6817e2486d003becc55f00556113b3806100405f395ff3fe608060405234801561000f575f80fd5b506004361061013d575f3560e01c8063502b3a3b116100b4578063adfaa72e11610079578063adfaa72e146102aa578063cc2ee196146102bd578063d4f3ef19146102d2578063e3cfef60146102e7578063e4741da4146102ef578063f5ba1c87146102f9575f80fd5b8063502b3a3b146102565780637c65d7111461026957806385a38635146102715780638e7ea5b21461027a578063a5b767c914610297575f80fd5b8063174ca1ce11610105578063174ca1ce146101b65780631bf71b49146101e157806322f3e2d4146101f8578063390071c314610200578063409e22051461021f5780634717f97c1461023f575f80fd5b80630121b93f1461014157806309eef43e146101565780630d15fd771461018d5780630da183d6146101a4578063158ef93e146101ac575b5f80fd5b61015461014f366004610d52565b610318565b005b610178610164366004610d84565b60076020525f908152604090205460ff1681565b60405190151581526020015b60405180910390f35b61019660095481565b604051908152602001610184565b610196600a81565b5f5460ff16610178565b6001546101c9906001600160a01b031681565b6040516001600160a01b039091168152602001610184565b5f546101c99061010090046001600160a01b031681565b6101786104fa565b61019661020e366004610d52565b60066020525f908152604090205481565b61023261022d366004610d52565b610512565b6040516101849190610dd2565b6102476105b8565b60405161018493929190610e78565b610196610264366004610d52565b61071f565b61023261073e565b61019660045481565b61028261074b565b60408051928352602083019190915201610184565b6101546102a5366004610feb565b6107e1565b6101786102b8366004610d84565b6109ba565b6102c5610a8a565b6040516101849190611119565b6102da610b5e565b604051610184919061112b565b610196610bb4565b6005541515610178565b610196610307366004610d84565b60086020525f908152604090205481565b610320610be0565b600454421061034257604051637a19ed0560e01b815260040160405180910390fd5b5f5460ff16610364576040516321c4e35760e21b815260040160405180910390fd5b335f9081526007602052604090205460ff161561039457604051637c9a1cf960e01b815260040160405180910390fd5b60035481106103b657604051632a71953160e01b815260040160405180910390fd5b6005541561044d57600154604051636d8eb06760e01b81526001600160a01b0390911690636d8eb067906103f190339060059060040161113d565b602060405180830381865afa15801561040c573d5f803e3d5ffd5b505050506040513d601f19601f820116820180604052508101906104309190611189565b61044d5760405163ecb746cd60e01b815260040160405180910390fd5b335f908152600760209081526040808320805460ff191660011790556008825280832084905583835260069091528120805491610489836111bc565b909155505060098054905f61049d836111bc565b9091555050604051819033907fa36cc2bebb74db33e9f88110a07ef56e1b31b24b4c4f51b54b1664266e29f45b905f90a36104f760017f9b779b17422d0df92223018b32b4d1fa46e071723d6817e2486d003becc55f0055565b50565b5f805460ff16801561050d575060045442105b905090565b60038181548110610521575f80fd5b905f5260205f20015f915090508054610539906111d4565b80601f0160208091040260200160405190810160405280929190818152602001828054610565906111d4565b80156105b05780601f10610587576101008083540402835291602001916105b0565b820191905f5260205f20905b81548152906001019060200180831161059357829003601f168201915b505050505081565b6060805f6003805480602002602001604051908101604052809291908181526020015f905b82821015610685578382905f5260205f200180546105fa906111d4565b80601f0160208091040260200160405190810160405280929190818152602001828054610626906111d4565b80156106715780601f1061064857610100808354040283529160200191610671565b820191905f5260205f20905b81548152906001019060200180831161065457829003601f168201915b5050505050815260200190600101906105dd565b5050600354929550505067ffffffffffffffff8111156106a7576106a7610ead565b6040519080825280602002602001820160405280156106d0578160200160208202803683370190505b5091505f5b600354811015610714575f8181526006602052604090205483518490839081106107015761070161120c565b60209081029190910101526001016106d5565b506009549050909192565b6005818154811061072e575f80fd5b5f91825260209091200154905081565b60028054610539906111d4565b5f8060045442101561077057604051633fc30bd160e11b815260040160405180910390fd5b50505f80805260066020527f54cdd369e4e8a8515e52ca72ec816c2101831ad1f18bf44102ed171459c9b4f85460015b6003548110156107dc575f818152600660205260409020548210156107d4575f818152600660205260409020549092509050815b6001016107a0565b509091565b5f5460ff16156108035760405162dc149f60e41b815260040160405180910390fd5b83515f036108245760405163b8a7f21960e01b815260040160405180910390fd5b60028351101561084757604051635135bc7160e01b815260040160405180910390fd5b600a8351111561086a57604051630de5482160e11b815260040160405180910390fd5b815f0361088a576040516305a612e360e01b815260040160405180910390fd5b5f5b83518110156108d7578381815181106108a7576108a761120c565b6020026020010151515f036108cf57604051630f5e795760e01b815260040160405180910390fd5b60010161088c565b505f8054610100600160a81b0319166101006001600160a01b038981169190910291909117909155600180546001600160a01b0319169187169190911790556002610922858261126c565b508251610936906003906020860190610c52565b506109418242611327565b6004558051610957906005906020840190610ca6565b505f805460ff19166001179055600454835182516040516001600160a01b038a16937f793e500fe4ef8918507cea0b0f0977d56fa966cabfa138070b249b8a424f8571936109aa938a939015159061133a565b60405180910390a2505050505050565b5f805460ff166109cb57505f919050565b60045442106109db57505f919050565b6001600160a01b0382165f9081526007602052604090205460ff1615610a0257505f919050565b60055415610a8257600154604051636d8eb06760e01b81526001600160a01b0390911690636d8eb06790610a3d90859060059060040161113d565b602060405180830381865afa158015610a58573d5f803e3d5ffd5b505050506040513d601f19601f82011682018060405250810190610a7c9190611189565b92915050565b506001919050565b60606003805480602002602001604051908101604052809291908181526020015f905b82821015610b55578382905f5260205f20018054610aca906111d4565b80601f0160208091040260200160405190810160405280929190818152602001828054610af6906111d4565b8015610b415780601f10610b1857610100808354040283529160200191610b41565b820191905f5260205f20905b815481529060010190602001808311610b2457829003601f168201915b505050505081526020019060010190610aad565b50505050905090565b60606005805480602002602001604051908101604052809291908181526020018280548015610baa57602002820191905f5260205f20905b815481526020019060010190808311610b96575b5050505050905090565b5f805460ff161580610bc857506004544210155b15610bd257505f90565b4260045461050d919061136a565b610be8610c0e565b60027f9b779b17422d0df92223018b32b4d1fa46e071723d6817e2486d003becc55f0055565b7f9b779b17422d0df92223018b32b4d1fa46e071723d6817e2486d003becc55f0054600203610c5057604051633ee5aeb560e01b815260040160405180910390fd5b565b828054828255905f5260205f20908101928215610c96579160200282015b82811115610c965782518290610c86908261126c565b5091602001919060010190610c70565b50610ca2929150610ceb565b5090565b828054828255905f5260205f20908101928215610cdf579160200282015b82811115610cdf578251825591602001919060010190610cc4565b50610ca2929150610d07565b80821115610ca2575f610cfe8282610d1b565b50600101610ceb565b5b80821115610ca2575f8155600101610d08565b508054610d27906111d4565b5f825580601f10610d36575050565b601f0160209004905f5260205f20908101906104f79190610d07565b5f60208284031215610d62575f80fd5b5035919050565b80356001600160a01b0381168114610d7f575f80fd5b919050565b5f60208284031215610d94575f80fd5b610d9d82610d69565b9392505050565b5f81518084528060208401602086015e5f602082860101526020601f19601f83011685010191505092915050565b602081525f610d9d6020830184610da4565b5f82825180855260208501945060208160051b830101602085015f5b83811015610e3257601f19858403018852610e1c838351610da4565b6020988901989093509190910190600101610e00565b50909695505050505050565b5f8151808452602084019350602083015f5b82811015610e6e578151865260209586019590910190600101610e50565b5093949350505050565b606081525f610e8a6060830186610de4565b8281036020840152610e9c8186610e3e565b915050826040830152949350505050565b634e487b7160e01b5f52604160045260245ffd5b604051601f8201601f1916810167ffffffffffffffff81118282101715610eea57610eea610ead565b604052919050565b5f82601f830112610f01575f80fd5b813567ffffffffffffffff811115610f1b57610f1b610ead565b610f2e601f8201601f1916602001610ec1565b818152846020838601011115610f42575f80fd5b816020850160208301375f918101602001919091529392505050565b5f67ffffffffffffffff821115610f7757610f77610ead565b5060051b60200190565b5f82601f830112610f90575f80fd5b8135610fa3610f9e82610f5e565b610ec1565b8082825260208201915060208360051b860101925085831115610fc4575f80fd5b602085015b83811015610fe1578035835260209283019201610fc9565b5095945050505050565b5f805f805f8060c08789031215611000575f80fd5b61100987610d69565b955061101760208801610d69565b9450604087013567ffffffffffffffff811115611032575f80fd5b61103e89828a01610ef2565b945050606087013567ffffffffffffffff81111561105a575f80fd5b8701601f8101891361106a575f80fd5b8035611078610f9e82610f5e565b8082825260208201915060208360051b85010192508b831115611099575f80fd5b602084015b838110156110da57803567ffffffffffffffff8111156110bc575f80fd5b6110cb8e602083890101610ef2565b8452506020928301920161109e565b5095505050506080870135915060a087013567ffffffffffffffff811115611100575f80fd5b61110c89828a01610f81565b9150509295509295509295565b602081525f610d9d6020830184610de4565b602081525f610d9d6020830184610e3e565b6001600160a01b03831681526040602080830182905283549183018290525f84815290812090916060840190835b81811015610e3257835483526001938401936020909301920161116b565b5f60208284031215611199575f80fd5b81518015158114610d9d575f80fd5b634e487b7160e01b5f52601160045260245ffd5b5f600182016111cd576111cd6111a8565b5060010190565b600181811c908216806111e857607f821691505b60208210810361120657634e487b7160e01b5f52602260045260245ffd5b50919050565b634e487b7160e01b5f52603260045260245ffd5b601f82111561126757805f5260205f20601f840160051c810160208510156112455750805b601f840160051c820191505b81811015611264575f8155600101611251565b50505b505050565b815167ffffffffffffffff81111561128657611286610ead565b61129a8161129484546111d4565b84611220565b6020601f8211600181146112cc575f83156112b55750848201515b5f19600385901b1c1916600184901b178455611264565b5f84815260208120601f198516915b828110156112fb57878501518255602094850194600190920191016112db565b508482101561131857868401515f19600387901b60f8161c191681555b50505050600190811b01905550565b80820180821115610a7c57610a7c6111a8565b608081525f61134c6080830187610da4565b60208301959095525060408101929092521515606090910152919050565b81810381811115610a7c57610a7c6111a856fea2646970667358221220cda146f473509bfb0dcc146b0de84d51d1fc2efff7c53980c4b76b0c4dc1822464736f6c634300081a0033",
  "devdoc": {
    "details": "Designed to be cloned - uses initialize pattern instead of constructor",
    "errors": {
      "ReentrancyGuardReentrantCall()": [
        {
          "details": "Unauthorized reentrant call."
        }
      ]
    },
    "kind": "dev",
    "methods": {
      "__init(address,address,string,string[],uint256,uint256[])": {
        "params": {
          "_assembly": "Address of the Assembly creating this contest",
          "_options": "Array of voting options",
          "_passports": "Address of the passport contract",
          "_prompt": "The question or prompt for this contest",
          "_requiredPassports": "Array of passport token IDs required to vote",
          "_votingDuration": "Duration of voting period in seconds"
        }
      },
      "canVote(address)": {
        "params": {
          "voter": "Address to check"
        }
      },
      "getResults()": {
        "returns": {
          "optionNames": "Array of option strings",
          "total": "Total votes cast",
          "votes": "Array of vote counts for each option"
        }
      },
      "getWinner()": {
        "details": "In case of tie, returns the lowest index option",
        "returns": {
          "winningIndex": "Index of the winning option",
          "winningVotes": "Number of votes for the winner"
        }
      },
      "timeRemaining()": {
        "returns": {
          "_0": "seconds remaining (0 if ended)"
        }
      },
      "vote(uint256)": {
        "params": {
          "optionIndex": "Index of the option to vote for"
        }
      }
    },
    "title": "Contest",
    "version": 1
  },
  "userdoc": {
    "kind": "user",
    "methods": {
      "MAX_OPTIONS()": {
        "notice": "Maximum number of options allowed per contest"
      },
      "__init(address,address,string,string[],uint256,uint256[])": {
        "notice": "Initializes the contest (called by Assembly after cloning)"
      },
      "assemblyAddress()": {
        "notice": "The Assembly that created this contest"
      },
      "canVote(address)": {
        "notice": "Check if a specific address can vote"
      },
      "getOptions()": {
        "notice": "Get all voting options"
      },
      "getRequiredPassports()": {
        "notice": "Get all required passport IDs"
      },
      "getResults()": {
        "notice": "Get complete vote results"
      },
      "getWinner()": {
        "notice": "Get the winning option index"
      },
      "hasVoted(address)": {
        "notice": "Track who has voted: address => hasVoted"
      },
      "initialized()": {
        "notice": "Check if contest has been initialized"
      },
      "isActive()": {
        "notice": "Check if voting is currently active"
      },
      "isGated()": {
        "notice": "Check if contest is gated by passports"
      },
      "options(uint256)": {
        "notice": "Array of voting options"
      },
      "passports()": {
        "notice": "The passport contract for gating"
      },
      "prompt()": {
        "notice": "Contest prompt/question"
      },
      "requiredPassports(uint256)": {
        "notice": "Required passport token IDs (empty array = open voting)"
      },
      "timeRemaining()": {
        "notice": "Get time remaining in voting period"
      },
      "totalVotes()": {
        "notice": "Total number of votes cast"
      },
      "userVote(address)": {
        "notice": "Track individual votes: address => optionIndex"
      },
      "vote(uint256)": {
        "notice": "Cast a vote for an option"
      },
      "voteTally(uint256)": {
        "notice": "Vote tallies: optionIndex => vote count"
      },
      "votingEnd()": {
        "notice": "Timestamp when voting ends"
      }
    },
    "notice": "A time-bound voting mechanism for Assemblies to make decisions",
    "version": 1
  },
  "storageLayout": {
    "storage": [
      {
        "astId": 9472,
        "contract": "contracts/Contest.sol:Contest",
        "label": "_initialized",
        "offset": 0,
        "slot": "0",
        "type": "t_bool"
      },
      {
        "astId": 9475,
        "contract": "contracts/Contest.sol:Contest",
        "label": "assemblyAddress",
        "offset": 1,
        "slot": "0",
        "type": "t_address"
      },
      {
        "astId": 9478,
        "contract": "contracts/Contest.sol:Contest",
        "label": "passports",
        "offset": 0,
        "slot": "1",
        "type": "t_address"
      },
      {
        "astId": 9481,
        "contract": "contracts/Contest.sol:Contest",
        "label": "prompt",
        "offset": 0,
        "slot": "2",
        "type": "t_string_storage"
      },
      {
        "astId": 9485,
        "contract": "contracts/Contest.sol:Contest",
        "label": "options",
        "offset": 0,
        "slot": "3",
        "type": "t_array(t_string_storage)dyn_storage"
      },
      {
        "astId": 9488,
        "contract": "contracts/Contest.sol:Contest",
        "label": "votingEnd",
        "offset": 0,
        "slot": "4",
        "type": "t_uint256"
      },
      {
        "astId": 9492,
        "contract": "contracts/Contest.sol:Contest",
        "label": "requiredPassports",
        "offset": 0,
        "slot": "5",
        "type": "t_array(t_uint256)dyn_storage"
      },
      {
        "astId": 9497,
        "contract": "contracts/Contest.sol:Contest",
        "label": "voteTally",
        "offset": 0,
        "slot": "6",
        "type": "t_mapping(t_uint256,t_uint256)"
      },
      {
        "astId": 9502,
        "contract": "contracts/Contest.sol:Contest",
        "label": "hasVoted",
        "offset": 0,
        "slot": "7",
        "type": "t_mapping(t_address,t_bool)"
      },
      {
        "astId": 9507,
        "contract": "contracts/Contest.sol:Contest",
        "label": "userVote",
        "offset": 0,
        "slot": "8",
        "type": "t_mapping(t_address,t_uint256)"
      },
      {
        "astId": 9510,
        "contract": "contracts/Contest.sol:Contest",
        "label": "totalVotes",
        "offset": 0,
        "slot": "9",
        "type": "t_uint256"
      }
    ],
    "types": {
      "t_address": {
        "encoding": "inplace",
        "label": "address",
        "numberOfBytes": "20"
      },
      "t_array(t_string_storage)dyn_storage": {
        "base": "t_string_storage",
        "encoding": "dynamic_array",
        "label": "string[]",
        "numberOfBytes": "32"
      },
      "t_array(t_uint256)dyn_storage": {
        "base": "t_uint256",
        "encoding": "dynamic_array",
        "label": "uint256[]",
        "numberOfBytes": "32"
      },
      "t_bool": {
        "encoding": "inplace",
        "label": "bool",
        "numberOfBytes": "1"
      },
      "t_mapping(t_address,t_bool)": {
        "encoding": "mapping",
        "key": "t_address",
        "label": "mapping(address => bool)",
        "numberOfBytes": "32",
        "value": "t_bool"
      },
      "t_mapping(t_address,t_uint256)": {
        "encoding": "mapping",
        "key": "t_address",
        "label": "mapping(address => uint256)",
        "numberOfBytes": "32",
        "value": "t_uint256"
      },
      "t_mapping(t_uint256,t_uint256)": {
        "encoding": "mapping",
        "key": "t_uint256",
        "label": "mapping(uint256 => uint256)",
        "numberOfBytes": "32",
        "value": "t_uint256"
      },
      "t_string_storage": {
        "encoding": "bytes",
        "label": "string",
        "numberOfBytes": "32"
      },
      "t_uint256": {
        "encoding": "inplace",
        "label": "uint256",
        "numberOfBytes": "32"
      }
    }
  }
}